{
  "contractName": "Coinflip",
  "abi": [
    {
      "anonymous": false,
      "inputs": [
        {
          "indexed": false,
          "internalType": "address",
          "name": "user",
          "type": "address"
        },
        {
          "indexed": false,
          "internalType": "uint256",
          "name": "bet",
          "type": "uint256"
        },
        {
          "indexed": false,
          "internalType": "bool",
          "name": "",
          "type": "bool"
        }
      ],
      "name": "bet",
      "type": "event"
    },
    {
      "anonymous": false,
      "inputs": [
        {
          "indexed": false,
          "internalType": "address",
          "name": "owner",
          "type": "address"
        },
        {
          "indexed": false,
          "internalType": "uint256",
          "name": "funding",
          "type": "uint256"
        }
      ],
      "name": "funded",
      "type": "event"
    },
    {
      "constant": true,
      "inputs": [],
      "name": "contractBalance",
      "outputs": [
        {
          "internalType": "uint256",
          "name": "",
          "type": "uint256"
        }
      ],
      "payable": false,
      "stateMutability": "view",
      "type": "function"
    },
    {
      "constant": true,
      "inputs": [],
      "name": "contractOwner",
      "outputs": [
        {
          "internalType": "address",
          "name": "",
          "type": "address"
        }
      ],
      "payable": false,
      "stateMutability": "view",
      "type": "function"
    },
    {
      "constant": false,
      "inputs": [
        {
          "internalType": "address",
          "name": "newOwner",
          "type": "address"
        }
      ],
      "name": "transferOwnership",
      "outputs": [],
      "payable": false,
      "stateMutability": "nonpayable",
      "type": "function"
    },
    {
      "constant": false,
      "inputs": [],
      "name": "flip",
      "outputs": [
        {
          "internalType": "bool",
          "name": "",
          "type": "bool"
        }
      ],
      "payable": true,
      "stateMutability": "payable",
      "type": "function"
    },
    {
      "constant": false,
      "inputs": [],
      "name": "withdrawAll",
      "outputs": [
        {
          "internalType": "uint256",
          "name": "",
          "type": "uint256"
        }
      ],
      "payable": false,
      "stateMutability": "nonpayable",
      "type": "function"
    },
    {
      "constant": true,
      "inputs": [],
      "name": "getBalance",
      "outputs": [
        {
          "internalType": "address",
          "name": "",
          "type": "address"
        },
        {
          "internalType": "uint256",
          "name": "",
          "type": "uint256"
        },
        {
          "internalType": "uint256",
          "name": "",
          "type": "uint256"
        }
      ],
      "payable": false,
      "stateMutability": "view",
      "type": "function"
    },
    {
      "constant": false,
      "inputs": [],
      "name": "fundContract",
      "outputs": [
        {
          "internalType": "uint256",
          "name": "",
          "type": "uint256"
        }
      ],
      "payable": true,
      "stateMutability": "payable",
      "type": "function"
    }
  ],
  "bytecode": "0x6080604052336000806101000a81548173ffffffffffffffffffffffffffffffffffffffff021916908373ffffffffffffffffffffffffffffffffffffffff160217905550610891806100536000396000f3fe6080604052600436106100705760003560e01c8063bd097e211161004e578063bd097e2114610130578063cde4efa91461014e578063ce606ee014610170578063f2fde38b146101c757610070565b806312065fe014610075578063853828b6146100da5780638b7afe2e14610105575b600080fd5b34801561008157600080fd5b5061008a610218565b604051808473ffffffffffffffffffffffffffffffffffffffff1673ffffffffffffffffffffffffffffffffffffffff168152602001838152602001828152602001935050505060405180910390f35b3480156100e657600080fd5b506100ef610244565b6040518082815260200191505060405180910390f35b34801561011157600080fd5b5061011a610387565b6040518082815260200191505060405180910390f35b61013861038d565b6040518082815260200191505060405180910390f35b6101566104b3565b604051808215151515815260200191505060405180910390f35b34801561017c57600080fd5b506101856106c1565b604051808273ffffffffffffffffffffffffffffffffffffffff1673ffffffffffffffffffffffffffffffffffffffff16815260200191505060405180910390f35b3480156101d357600080fd5b50610216600480360360208110156101ea57600080fd5b81019080803573ffffffffffffffffffffffffffffffffffffffff1690602001909291905050506106e6565b005b6000806000303073ffffffffffffffffffffffffffffffffffffffff1631600154925092509250909192565b60008060009054906101000a900473ffffffffffffffffffffffffffffffffffffffff1673ffffffffffffffffffffffffffffffffffffffff163373ffffffffffffffffffffffffffffffffffffffff16146102eb576040517f08c379a000000000000000000000000000000000000000000000000000000000815260040180806020018281038252602e815260200180610809602e913960400191505060405180910390fd5b3373ffffffffffffffffffffffffffffffffffffffff166108fc3073ffffffffffffffffffffffffffffffffffffffff16319081150290604051600060405180830381858888f19350505050158015610348573d6000803e3d6000fd5b5060003073ffffffffffffffffffffffffffffffffffffffff16311461036a57fe5b3073ffffffffffffffffffffffffffffffffffffffff1631905090565b60015481565b60008060009054906101000a900473ffffffffffffffffffffffffffffffffffffffff1673ffffffffffffffffffffffffffffffffffffffff163373ffffffffffffffffffffffffffffffffffffffff1614610434576040517f08c379a000000000000000000000000000000000000000000000000000000000815260040180806020018281038252602e815260200180610809602e913960400191505060405180910390fd5b600034141561044257600080fd5b7fed7d0ddcc17abdb3935a0a23cd93e91b449dfeac7fd0def9f481ed5b37e18c4d3334604051808373ffffffffffffffffffffffffffffffffffffffff1673ffffffffffffffffffffffffffffffffffffffff1681526020018281526020019250505060405180910390a134905090565b6000662386f26fc100008034101580156104d45750662386f26fc100003410155b610546576040517f08c379a000000000000000000000000000000000000000000000000000000000815260040180806020018281038252601d8152602001807f546865206d696e696d756d2062657420697320302e303120457468657200000081525060200191505060405180910390fd5b343073ffffffffffffffffffffffffffffffffffffffff163110156105b6576040517f08c379a00000000000000000000000000000000000000000000000000000000081526004018080602001828103825260268152602001806108376026913960400191505060405180910390fd5b600080600242816105c357fe5b0614156105e3573460016000828254019250508190555060009050610642565b346001600082825403925050819055503373ffffffffffffffffffffffffffffffffffffffff166108fc600234029081150290604051600060405180830381858888f1935050505015801561063c573d6000803e3d6000fd5b50600190505b7f20d932006281d267f137cd3921b707c2097e1f041b1291181cc3d0e86f449ebb333483604051808473ffffffffffffffffffffffffffffffffffffffff1673ffffffffffffffffffffffffffffffffffffffff16815260200183815260200182151515158152602001935050505060405180910390a1809250505090565b6000809054906101000a900473ffffffffffffffffffffffffffffffffffffffff1681565b6000809054906101000a900473ffffffffffffffffffffffffffffffffffffffff1673ffffffffffffffffffffffffffffffffffffffff163373ffffffffffffffffffffffffffffffffffffffff161461078b576040517f08c379a000000000000000000000000000000000000000000000000000000000815260040180806020018281038252602e815260200180610809602e913960400191505060405180910390fd5b600073ffffffffffffffffffffffffffffffffffffffff168173ffffffffffffffffffffffffffffffffffffffff1614156107c557600080fd5b806000806101000a81548173ffffffffffffffffffffffffffffffffffffffff021916908373ffffffffffffffffffffffffffffffffffffffff1602179055505056fe596f7520617265206e6f7420656e7469746c656420746f206578656375746520746869732066756e6374696f6e2e54686520636f6e747261637420646f65736e2774206861766520656e6f7567682066756e6473a265627a7a72315820ed9ab184efb1e6d5e4eb8dc3ff82dc4aca410775453ec286efd22c311d585c4664736f6c634300050c0032",
  "source": "import \"./Ownable.sol\";\n\npragma solidity 0.5.12;\n\ncontract Coinflip is Ownable {\n    uint public contractBalance;\n\n    event bet(address user, uint bet, bool);\n\n    event funded(address owner, uint funding);\n\n    modifier costs(uint cost) {\n        require(msg.value >= cost && msg.value >= 0.01 ether, \"The minimum bet is 0.01 Ether\");\n        _; \n    }\n    \n    function flip() public payable costs(0.01 ether) returns(bool){\n        require(address(this).balance >= msg.value, \"The contract doesn't have enough funds\");\n        bool success;\n\n        if (now % 2 == 0){\n            contractBalance += msg.value;\n            success = false;\n        }\n\n        else {\n            contractBalance -= msg.value;\n            msg.sender.transfer(msg.value * 2);\n            success = true;\n        }\n\n        emit bet(msg.sender, msg.value, success);\n        return success;\n    }\n\n    function withdrawAll () public onlyOwner returns(uint){\n        msg.sender.transfer(address(this).balance);\n        assert(address(this).balance == 0);\n        return address(this).balance;\n    }\n\n    function getBalance() public view returns (address, uint, uint) {\n        return(address(this), address(this).balance, contractBalance);\n    }\n\n    function fundContract() public payable onlyOwner returns(uint){\n        require(msg.value != 0);\n        emit funded(msg.sender, msg.value);\n        return msg.value;\n    }\n}",
  "sourcePath": "/home/autodidactic/lib/projects/coinflip-dapp/contracts/Coinflip.sol",
  "compiler": {
    "name": "solc",
    "version": "0.5.12+commit.7709ece9.Emscripten.clang"
  },
  "schemaVersion": "3.0.16",
  "updatedAt": "2020-03-08T20:51:21.046Z",
  "devdoc": {
    "methods": {}
  },
  "userdoc": {
    "methods": {}
  }
}