{
  "contractName": "Coinflip",
  "abi": [
    {
      "inputs": [],
      "payable": false,
      "stateMutability": "nonpayable",
      "type": "constructor"
    },
    {
      "anonymous": false,
      "inputs": [
        {
          "indexed": false,
          "internalType": "string",
          "name": "description",
          "type": "string"
        }
      ],
      "name": "LogNewProvableQuery",
      "type": "event"
    },
    {
      "anonymous": false,
      "inputs": [
        {
          "indexed": false,
          "internalType": "address",
          "name": "user",
          "type": "address"
        },
        {
          "indexed": false,
          "internalType": "uint256",
          "name": "bet",
          "type": "uint256"
        },
        {
          "indexed": false,
          "internalType": "bool",
          "name": "success",
          "type": "bool"
        }
      ],
      "name": "bet",
      "type": "event"
    },
    {
      "anonymous": false,
      "inputs": [
        {
          "indexed": true,
          "internalType": "address",
          "name": "player",
          "type": "address"
        },
        {
          "indexed": false,
          "internalType": "bytes32",
          "name": "queryId",
          "type": "bytes32"
        },
        {
          "indexed": false,
          "internalType": "uint256",
          "name": "value",
          "type": "uint256"
        }
      ],
      "name": "betPlaced",
      "type": "event"
    },
    {
      "anonymous": false,
      "inputs": [
        {
          "indexed": true,
          "internalType": "address",
          "name": "player",
          "type": "address"
        },
        {
          "indexed": false,
          "internalType": "bytes32",
          "name": "Id",
          "type": "bytes32"
        },
        {
          "indexed": false,
          "internalType": "uint256",
          "name": "value",
          "type": "uint256"
        },
        {
          "indexed": false,
          "internalType": "bool",
          "name": "result",
          "type": "bool"
        }
      ],
      "name": "betTaken",
      "type": "event"
    },
    {
      "anonymous": false,
      "inputs": [
        {
          "indexed": false,
          "internalType": "address",
          "name": "owner",
          "type": "address"
        },
        {
          "indexed": false,
          "internalType": "uint256",
          "name": "funding",
          "type": "uint256"
        }
      ],
      "name": "funded",
      "type": "event"
    },
    {
      "anonymous": false,
      "inputs": [
        {
          "indexed": false,
          "internalType": "uint256",
          "name": "randomNumber",
          "type": "uint256"
        }
      ],
      "name": "randomNumberGenerated",
      "type": "event"
    },
    {
      "constant": true,
      "inputs": [],
      "name": "contractBalance",
      "outputs": [
        {
          "internalType": "uint256",
          "name": "",
          "type": "uint256"
        }
      ],
      "payable": false,
      "stateMutability": "view",
      "type": "function"
    },
    {
      "constant": true,
      "inputs": [],
      "name": "contractOwner",
      "outputs": [
        {
          "internalType": "address",
          "name": "",
          "type": "address"
        }
      ],
      "payable": false,
      "stateMutability": "view",
      "type": "function"
    },
    {
      "constant": true,
      "inputs": [],
      "name": "latestNumber",
      "outputs": [
        {
          "internalType": "uint256",
          "name": "",
          "type": "uint256"
        }
      ],
      "payable": false,
      "stateMutability": "view",
      "type": "function"
    },
    {
      "constant": true,
      "inputs": [
        {
          "internalType": "bytes32",
          "name": "",
          "type": "bytes32"
        }
      ],
      "name": "results",
      "outputs": [
        {
          "internalType": "address payable",
          "name": "player",
          "type": "address"
        },
        {
          "internalType": "uint256",
          "name": "value",
          "type": "uint256"
        },
        {
          "internalType": "bool",
          "name": "result",
          "type": "bool"
        }
      ],
      "payable": false,
      "stateMutability": "view",
      "type": "function"
    },
    {
      "constant": false,
      "inputs": [
        {
          "internalType": "address",
          "name": "newOwner",
          "type": "address"
        }
      ],
      "name": "transferOwnership",
      "outputs": [],
      "payable": false,
      "stateMutability": "nonpayable",
      "type": "function"
    },
    {
      "constant": true,
      "inputs": [
        {
          "internalType": "address",
          "name": "",
          "type": "address"
        }
      ],
      "name": "waiting",
      "outputs": [
        {
          "internalType": "bool",
          "name": "",
          "type": "bool"
        }
      ],
      "payable": false,
      "stateMutability": "view",
      "type": "function"
    },
    {
      "constant": false,
      "inputs": [
        {
          "internalType": "bytes32",
          "name": "_myid",
          "type": "bytes32"
        },
        {
          "internalType": "string",
          "name": "_result",
          "type": "string"
        }
      ],
      "name": "__callback",
      "outputs": [],
      "payable": false,
      "stateMutability": "nonpayable",
      "type": "function"
    },
    {
      "constant": false,
      "inputs": [
        {
          "internalType": "bytes32",
          "name": "_queryId",
          "type": "bytes32"
        },
        {
          "internalType": "string",
          "name": "_result",
          "type": "string"
        },
        {
          "internalType": "bytes",
          "name": "_proof",
          "type": "bytes"
        }
      ],
      "name": "__callback",
      "outputs": [],
      "payable": false,
      "stateMutability": "nonpayable",
      "type": "function"
    },
    {
      "constant": false,
      "inputs": [],
      "name": "update",
      "outputs": [
        {
          "internalType": "bytes32",
          "name": "",
          "type": "bytes32"
        }
      ],
      "payable": true,
      "stateMutability": "payable",
      "type": "function"
    },
    {
      "constant": false,
      "inputs": [],
      "name": "flip",
      "outputs": [
        {
          "internalType": "bool",
          "name": "",
          "type": "bool"
        }
      ],
      "payable": true,
      "stateMutability": "payable",
      "type": "function"
    },
    {
      "constant": false,
      "inputs": [],
      "name": "withdrawAll",
      "outputs": [
        {
          "internalType": "uint256",
          "name": "",
          "type": "uint256"
        }
      ],
      "payable": false,
      "stateMutability": "nonpayable",
      "type": "function"
    },
    {
      "constant": true,
      "inputs": [],
      "name": "getBalance",
      "outputs": [
        {
          "internalType": "address",
          "name": "",
          "type": "address"
        },
        {
          "internalType": "uint256",
          "name": "",
          "type": "uint256"
        },
        {
          "internalType": "uint256",
          "name": "",
          "type": "uint256"
        }
      ],
      "payable": false,
      "stateMutability": "view",
      "type": "function"
    },
    {
      "constant": false,
      "inputs": [],
      "name": "fundContract",
      "outputs": [
        {
          "internalType": "uint256",
          "name": "",
          "type": "uint256"
        }
      ],
      "payable": true,
      "stateMutability": "payable",
      "type": "function"
    }
  ],
  "bytecode": "0x60806040523480156200001157600080fd5b50336000806101000a81548173ffffffffffffffffffffffffffffffffffffffff021916908373ffffffffffffffffffffffffffffffffffffffff16021790555062000067603060f81b6200007e60201b60201c565b62000077620003e460201b60201c565b5062002317565b600073ffffffffffffffffffffffffffffffffffffffff16600260009054906101000a900473ffffffffffffffffffffffffffffffffffffffff1673ffffffffffffffffffffffffffffffffffffffff1614806200010e575060006200010c600260009054906101000a900473ffffffffffffffffffffffffffffffffffffffff166200046060201b60201c565b145b1562000128576200012660006200046b60201b60201c565b505b600260009054906101000a900473ffffffffffffffffffffffffffffffffffffffff1673ffffffffffffffffffffffffffffffffffffffff166338cc48316040518163ffffffff1660e01b8152600401602060405180830381600087803b1580156200019357600080fd5b505af1158015620001a8573d6000803e3d6000fd5b505050506040513d6020811015620001bf57600080fd5b810190808051906020019092919050505073ffffffffffffffffffffffffffffffffffffffff16600160009054906101000a900473ffffffffffffffffffffffffffffffffffffffff1673ffffffffffffffffffffffffffffffffffffffff16146200030e57600260009054906101000a900473ffffffffffffffffffffffffffffffffffffffff1673ffffffffffffffffffffffffffffffffffffffff166338cc48316040518163ffffffff1660e01b8152600401602060405180830381600087803b1580156200029057600080fd5b505af1158015620002a5573d6000803e3d6000fd5b505050506040513d6020811015620002bc57600080fd5b8101908080519060200190929190505050600160006101000a81548173ffffffffffffffffffffffffffffffffffffffff021916908373ffffffffffffffffffffffffffffffffffffffff1602179055505b600160009054906101000a900473ffffffffffffffffffffffffffffffffffffffff1673ffffffffffffffffffffffffffffffffffffffff1663688dcfd7826040518263ffffffff1660e01b815260040180827effffffffffffffffffffffffffffffffffffffffffffffffffffffffffffff19167effffffffffffffffffffffffffffffffffffffffffffffffffffffffffffff19168152602001915050600060405180830381600087803b158015620003c857600080fd5b505af1158015620003dd573d6000803e3d6000fd5b5050505050565b60008060009050600062030d409050600062000409836001846200048460201b60201c565b90507fc4dc360d0a9c0677a3379ae0a3d81e887f761e65fdf3d7e00859d1bcd3c47389604051808060200182810382526029815260200180620056746029913960400191505060405180910390a180935050505090565b6000813b9050919050565b60006200047d62000a5760201b60201c565b9050919050565b6000808311801562000497575060208311155b620004a157600080fd5b600a84029350606060016040519080825280601f01601f191660200182016040528015620004de5781602001600182028038833980820191505090505b5090508360f81b81600081518110620004f357fe5b60200101907effffffffffffffffffffffffffffffffffffffffffffffffffffffffffffff1916908160001a905350606060206040519080825280601f01601f191660200182016040528015620005595781602001600182028038833980820191505090505b509050606060206040519080825280601f01601f191660200182016040528015620005935781602001600182028038833980820191505090505b5090506000620005a86200102660201b60201c565b905060208352424118600143034018602084015260208252806020830152606060206040519080825280601f01601f191660200182016040528015620005fd5781602001600182028038833980820191505090505b509050886020820152606060086040519080825280601f01601f1916602001820160405280156200063d5781602001600182028038833980820191505090505b5090506200065882601860088460006200136260201b60201c565b506200066362002226565b60405180608001604052808781526020018881526020018681526020018481525090506000620006d06040518060400160405280600681526020017f72616e646f6d0000000000000000000000000000000000000000000000000000815250838c620013c460201b60201c565b9050606060086040519080825280601f01601f191660200182016040528015620007095781602001600182028038833980820191505090505b50905060208401517f0100000000000000000000000000000000000000000000000000000000000000810460278301537e01000000000000000000000000000000000000000000000000000000000000810460268301537d010000000000000000000000000000000000000000000000000000000000810460258301537c0100000000000000000000000000000000000000000000000000000000810460248301537b01000000000000000000000000000000000000000000000000000000810460238301537a01000000000000000000000000000000000000000000000000000081046022830153790100000000000000000000000000000000000000000000000000810460218301537801000000000000000000000000000000000000000000000000810460208301535062000a448282856001600481106200084a57fe5b60200201516002876000600481106200085f57fe5b60200201516040518082805190602001908083835b6020831062000899578051825260208201915060208101905060208303925062000874565b6001836020036101000a038019825116818451168082178552505050505050905001915050602060405180830381855afa158015620008dc573d6000803e3d6000fd5b5050506040513d6020811015620008f257600080fd5b8101908080519060200190929190505050876002600481106200091157fe5b60200201516040516020018085805190602001908083835b602083106200094e578051825260208201915060208101905060208303925062000929565b6001836020036101000a03801982511681845116808217855250505050505090500184805190602001908083835b60208310620009a157805182526020820191506020810190506020830392506200097c565b6001836020036101000a03801982511681845116808217855250505050505090500183815260200182805190602001908083835b60208310620009fa5780518252602082019150602081019050602083039250620009d5565b6001836020036101000a038019825116818451168082178552505050505050905001945050505050604051602081830303815290604052805190602001206200175e60201b60201c565b8199505050505050505050509392505050565b60008062000a7f731d3b2638a7cc9f2cb3d298a3da7a90b67e5506ed6200046060201b60201c565b111562000b2b57731d3b2638a7cc9f2cb3d298a3da7a90b67e5506ed600260006101000a81548173ffffffffffffffffffffffffffffffffffffffff021916908373ffffffffffffffffffffffffffffffffffffffff16021790555062000b216040518060400160405280600b81526020017f6574685f6d61696e6e65740000000000000000000000000000000000000000008152506200177a60201b60201c565b6001905062001023565b600062000b5273c03a2615d5efaf5f49f60b7bb6583eaec212fdf16200046060201b60201c565b111562000bfe5773c03a2615d5efaf5f49f60b7bb6583eaec212fdf1600260006101000a81548173ffffffffffffffffffffffffffffffffffffffff021916908373ffffffffffffffffffffffffffffffffffffffff16021790555062000bf46040518060400160405280600c81526020017f6574685f726f707374656e3300000000000000000000000000000000000000008152506200177a60201b60201c565b6001905062001023565b600062000c2573b7a07bcf2ba2f2703b24c0691b5278999c59ac7e6200046060201b60201c565b111562000cd15773b7a07bcf2ba2f2703b24c0691b5278999c59ac7e600260006101000a81548173ffffffffffffffffffffffffffffffffffffffff021916908373ffffffffffffffffffffffffffffffffffffffff16021790555062000cc76040518060400160405280600981526020017f6574685f6b6f76616e00000000000000000000000000000000000000000000008152506200177a60201b60201c565b6001905062001023565b600062000cf873146500cfd35b22e4a392fe0adc06de1a1368ed486200046060201b60201c565b111562000da45773146500cfd35b22e4a392fe0adc06de1a1368ed48600260006101000a81548173ffffffffffffffffffffffffffffffffffffffff021916908373ffffffffffffffffffffffffffffffffffffffff16021790555062000d9a6040518060400160405280600b81526020017f6574685f72696e6b6562790000000000000000000000000000000000000000008152506200177a60201b60201c565b6001905062001023565b600062000dcb73a2998efd205fb9d4b4963afb70778d6354ad3a416200046060201b60201c565b111562000e775773a2998efd205fb9d4b4963afb70778d6354ad3a41600260006101000a81548173ffffffffffffffffffffffffffffffffffffffff021916908373ffffffffffffffffffffffffffffffffffffffff16021790555062000e6d6040518060400160405280600a81526020017f6574685f676f65726c69000000000000000000000000000000000000000000008152506200177a60201b60201c565b6001905062001023565b600062000e9e736f485c8bf6fc43ea212e93bbf8ce046c7f1cb4756200046060201b60201c565b111562000f0457736f485c8bf6fc43ea212e93bbf8ce046c7f1cb475600260006101000a81548173ffffffffffffffffffffffffffffffffffffffff021916908373ffffffffffffffffffffffffffffffffffffffff1602179055506001905062001023565b600062000f2b7320e12a1f859b3feae5fb2a0a32c18f5a65555bbf6200046060201b60201c565b111562000f91577320e12a1f859b3feae5fb2a0a32c18f5a65555bbf600260006101000a81548173ffffffffffffffffffffffffffffffffffffffff021916908373ffffffffffffffffffffffffffffffffffffffff1602179055506001905062001023565b600062000fb87351efaf4c8b3c9afbd5ab9f4bbc82784ab6ef8faa6200046060201b60201c565b11156200101e577351efaf4c8b3c9afbd5ab9f4bbc82784ab6ef8faa600260006101000a81548173ffffffffffffffffffffffffffffffffffffffff021916908373ffffffffffffffffffffffffffffffffffffffff1602179055506001905062001023565b600090505b90565b60008073ffffffffffffffffffffffffffffffffffffffff16600260009054906101000a900473ffffffffffffffffffffffffffffffffffffffff1673ffffffffffffffffffffffffffffffffffffffff161480620010b757506000620010b5600260009054906101000a900473ffffffffffffffffffffffffffffffffffffffff166200046060201b60201c565b145b15620010d157620010cf60006200046b60201b60201c565b505b600260009054906101000a900473ffffffffffffffffffffffffffffffffffffffff1673ffffffffffffffffffffffffffffffffffffffff166338cc48316040518163ffffffff1660e01b8152600401602060405180830381600087803b1580156200113c57600080fd5b505af115801562001151573d6000803e3d6000fd5b505050506040513d60208110156200116857600080fd5b810190808051906020019092919050505073ffffffffffffffffffffffffffffffffffffffff16600160009054906101000a900473ffffffffffffffffffffffffffffffffffffffff1673ffffffffffffffffffffffffffffffffffffffff1614620012b757600260009054906101000a900473ffffffffffffffffffffffffffffffffffffffff1673ffffffffffffffffffffffffffffffffffffffff166338cc48316040518163ffffffff1660e01b8152600401602060405180830381600087803b1580156200123957600080fd5b505af11580156200124e573d6000803e3d6000fd5b505050506040513d60208110156200126557600080fd5b8101908080519060200190929190505050600160006101000a81548173ffffffffffffffffffffffffffffffffffffffff021916908373ffffffffffffffffffffffffffffffffffffffff1602179055505b600160009054906101000a900473ffffffffffffffffffffffffffffffffffffffff1673ffffffffffffffffffffffffffffffffffffffff1663abaa5f3e6040518163ffffffff1660e01b815260040160206040518083038186803b1580156200132057600080fd5b505afa15801562001335573d6000803e3d6000fd5b505050506040513d60208110156200134c57600080fd5b8101908080519060200190929190505050905090565b60606000828501905080845110156200137a57600080fd5b600086602001905060008460200190505b868860200101821015620013b557818901518082880152506020820191506020810190506200138b565b85935050505095945050505050565b60008073ffffffffffffffffffffffffffffffffffffffff16600260009054906101000a900473ffffffffffffffffffffffffffffffffffffffff1673ffffffffffffffffffffffffffffffffffffffff161480620014555750600062001453600260009054906101000a900473ffffffffffffffffffffffffffffffffffffffff166200046060201b60201c565b145b156200146f576200146d60006200046b60201b60201c565b505b600260009054906101000a900473ffffffffffffffffffffffffffffffffffffffff1673ffffffffffffffffffffffffffffffffffffffff166338cc48316040518163ffffffff1660e01b8152600401602060405180830381600087803b158015620014da57600080fd5b505af1158015620014ef573d6000803e3d6000fd5b505050506040513d60208110156200150657600080fd5b810190808051906020019092919050505073ffffffffffffffffffffffffffffffffffffffff16600160009054906101000a900473ffffffffffffffffffffffffffffffffffffffff1673ffffffffffffffffffffffffffffffffffffffff16146200165557600260009054906101000a900473ffffffffffffffffffffffffffffffffffffffff1673ffffffffffffffffffffffffffffffffffffffff166338cc48316040518163ffffffff1660e01b8152600401602060405180830381600087803b158015620015d757600080fd5b505af1158015620015ec573d6000803e3d6000fd5b505050506040513d60208110156200160357600080fd5b8101908080519060200190929190505050600160006101000a81548173ffffffffffffffffffffffffffffffffffffffff021916908373ffffffffffffffffffffffffffffffffffffffff1602179055505b606060046040519080825280602002602001820160405280156200168e57816020015b6060815260200190600190039081620016785790505b509050836000600481106200169f57fe5b602002015181600081518110620016b257fe5b602002602001018190525083600160048110620016cb57fe5b602002015181600181518110620016de57fe5b602002602001018190525083600260048110620016f757fe5b6020020151816002815181106200170a57fe5b6020026020010181905250836003600481106200172357fe5b6020020151816003815181106200173657fe5b6020026020010181905250620017548582856200179660201b60201c565b9150509392505050565b8060046000848152602001908152602001600020819055505050565b8060039080519060200190620017929291906200224e565b5050565b60008073ffffffffffffffffffffffffffffffffffffffff16600260009054906101000a900473ffffffffffffffffffffffffffffffffffffffff1673ffffffffffffffffffffffffffffffffffffffff161480620018275750600062001825600260009054906101000a900473ffffffffffffffffffffffffffffffffffffffff166200046060201b60201c565b145b1562001841576200183f60006200046b60201b60201c565b505b600260009054906101000a900473ffffffffffffffffffffffffffffffffffffffff1673ffffffffffffffffffffffffffffffffffffffff166338cc48316040518163ffffffff1660e01b8152600401602060405180830381600087803b158015620018ac57600080fd5b505af1158015620018c1573d6000803e3d6000fd5b505050506040513d6020811015620018d857600080fd5b810190808051906020019092919050505073ffffffffffffffffffffffffffffffffffffffff16600160009054906101000a900473ffffffffffffffffffffffffffffffffffffffff1673ffffffffffffffffffffffffffffffffffffffff161462001a2757600260009054906101000a900473ffffffffffffffffffffffffffffffffffffffff1673ffffffffffffffffffffffffffffffffffffffff166338cc48316040518163ffffffff1660e01b8152600401602060405180830381600087803b158015620019a957600080fd5b505af1158015620019be573d6000803e3d6000fd5b505050506040513d6020811015620019d557600080fd5b8101908080519060200190929190505050600160006101000a81548173ffffffffffffffffffffffffffffffffffffffff021916908373ffffffffffffffffffffffffffffffffffffffff1602179055505b6000600160009054906101000a900473ffffffffffffffffffffffffffffffffffffffff1673ffffffffffffffffffffffffffffffffffffffff16632ef3accc86856040518363ffffffff1660e01b81526004018080602001838152602001828103825284818151815260200191508051906020019080838360005b8381101562001ac057808201518184015260208101905062001aa3565b50505050905090810190601f16801562001aee5780820380516001836020036101000a031916815260200191505b509350505050602060405180830381600087803b15801562001b0f57600080fd5b505af115801562001b24573d6000803e3d6000fd5b505050506040513d602081101562001b3b57600080fd5b81019080805190602001909291905050509050823a02670de0b6b3a76400000181111562001b70576000801b91505062001d27565b606062001b838562001d2e60201b60201c565b9050600160009054906101000a900473ffffffffffffffffffffffffffffffffffffffff1673ffffffffffffffffffffffffffffffffffffffff1663c55c1cb68360008985896040518663ffffffff1660e01b8152600401808581526020018060200180602001848152602001838103835286818151815260200191508051906020019080838360005b8381101562001c2a57808201518184015260208101905062001c0d565b50505050905090810190601f16801562001c585780820380516001836020036101000a031916815260200191505b50838103825285818151815260200191508051906020019080838360005b8381101562001c9357808201518184015260208101905062001c76565b50505050905090810190601f16801562001cc15780820380516001836020036101000a031916815260200191505b5096505050505050506020604051808303818588803b15801562001ce457600080fd5b505af115801562001cf9573d6000803e3d6000fd5b50505050506040513d602081101562001d1157600080fd5b8101908080519060200190929190505050925050505b9392505050565b606062001d4062001de960201b60201c565b62001d4a620022d5565b62001d638161040062001df560201b62002e381760201c565b62001d798162001e4260201b62002e821760201c565b60008090505b835181101562001dc55762001db784828151811062001d9a57fe5b60200260200101518362001e5860201b62002e901790919060201c565b808060010191505062001d7f565b5062001ddc8162001e8c60201b62002eb51760201c565b8060000151915050919050565b60405180590338823950565b600081905060006020828162001e0757fe5b061462001e22576020818162001e1957fe5b06602003810190505b808360200181815250506040518084526000815281810160405250505050565b62001e5581600462001ea260201b60201c565b50565b62001e6d826002835162001eca60201b60201c565b62001e8781836200205260201b620030241790919060201c565b505050565b62001e9f81600762001ea260201b60201c565b50565b62001ec6601f60058360ff16901b17836200211260201b620030cf1790919060201c565b5050565b6017811162001eff5762001ef98160058460ff16901b60ff1617846200211260201b620030cf1790919060201c565b6200204d565b60ff811162001f505762001f2c601860058460ff16901b17846200211260201b620030cf1790919060201c565b62001f49816001856200215b60201b6200310f179092919060201c565b506200204c565b61ffff811162001fa25762001f7e601960058460ff16901b17846200211260201b620030cf1790919060201c565b62001f9b816002856200215b60201b6200310f179092919060201c565b506200204b565b63ffffffff811162001ff65762001fd2601a60058460ff16901b17846200211260201b620030cf1790919060201c565b62001fef816004856200215b60201b6200310f179092919060201c565b506200204a565b67ffffffffffffffff811162002049576200202a601b60058460ff16901b17846200211260201b620030cf1790919060201c565b62002047816008856200215b60201b6200310f179092919060201c565b505b5b5b5b5b505050565b6200205c620022d5565b826020015183600001515183510111156200209d576200209c8360026200208f86602001518651620021d560201b60201c565b02620021f360201b60201c565b5b60008060008451905085518051602081830101945086518101825260208701935050505b60208110620020e65781518352602083019250602082019150602081039050620020c1565b60006001826020036101000a039050801983511681855116818117865250508694505050505092915050565b81602001516001836000015151011115620021415762002140826002846020015102620021f360201b60201c565b5b815180516020818301018381536001820183525050505050565b62002165620022d5565b836020015184600001515183011115620021a457620021a384600262002196876020015186620021d560201b60201c565b02620021f360201b60201c565b5b60006001836101000a0390508451805184818301018684198251161781528582018352505050849150509392505050565b600081831115620021e957829050620021ed565b8190505b92915050565b6060826000015190506200220e838362001df560201b60201c565b6200222083826200205260201b60201c565b50505050565b60405180608001604052806004905b6060815260200190600190039081620022355790505090565b828054600181600116156101000203166002900490600052602060002090601f016020900481019282601f106200229157805160ff1916838001178555620022c2565b82800160010185558215620022c2579182015b82811115620022c1578251825591602001919060010190620022a4565b5b509050620022d19190620022ef565b5090565b604051806040016040528060608152602001600081525090565b6200231491905b8082111562002310576000816000905550600101620022f6565b5090565b90565b61334d80620023276000396000f3fe6080604052600436106100c25760003560e01c8063a2e620451161007f578063ce606ee011610059578063ce606ee0146104a8578063dc34b0aa146104ff578063e437786d1461052a578063f2fde38b14610593576100c2565b8063a2e620451461044a578063bd097e2114610468578063cde4efa914610486576100c2565b806312065fe0146100c757806327dc297e1461012c57806338bbfa50146101fe5780634c6b25b114610367578063853828b6146103f45780638b7afe2e1461041f575b600080fd5b3480156100d357600080fd5b506100dc6105e4565b604051808473ffffffffffffffffffffffffffffffffffffffff1673ffffffffffffffffffffffffffffffffffffffff168152602001838152602001828152602001935050505060405180910390f35b34801561013857600080fd5b506101fc6004803603604081101561014f57600080fd5b81019080803590602001909291908035906020019064010000000081111561017657600080fd5b82018360208201111561018857600080fd5b803590602001918460018302840111640100000000831117156101aa57600080fd5b91908080601f016020809104026020016040519081016040528093929190818152602001838380828437600081840152601f19601f820116905080830192505050505050509192919290505050610610565b005b34801561020a57600080fd5b506103656004803603606081101561022157600080fd5b81019080803590602001909291908035906020019064010000000081111561024857600080fd5b82018360208201111561025a57600080fd5b8035906020019184600183028401116401000000008311171561027c57600080fd5b91908080601f016020809104026020016040519081016040528093929190818152602001838380828437600081840152601f19601f820116905080830192505050505050509192919290803590602001906401000000008111156102df57600080fd5b8201836020820111156102f157600080fd5b8035906020019184600183028401116401000000008311171561031357600080fd5b91908080601f016020809104026020016040519081016040528093929190818152602001838380828437600081840152601f19601f820116905080830192505050505050509192919290505050610653565b005b34801561037357600080fd5b506103a06004803603602081101561038a57600080fd5b81019080803590602001909291905050506109bd565b604051808473ffffffffffffffffffffffffffffffffffffffff1673ffffffffffffffffffffffffffffffffffffffff16815260200183815260200182151515158152602001935050505060405180910390f35b34801561040057600080fd5b50610409610a14565b6040518082815260200191505060405180910390f35b34801561042b57600080fd5b50610434610b57565b6040518082815260200191505060405180910390f35b610452610b5d565b6040518082815260200191505060405180910390f35b610470610bd0565b6040518082815260200191505060405180910390f35b61048e610cf6565b604051808215151515815260200191505060405180910390f35b3480156104b457600080fd5b506104bd611187565b604051808273ffffffffffffffffffffffffffffffffffffffff1673ffffffffffffffffffffffffffffffffffffffff16815260200191505060405180910390f35b34801561050b57600080fd5b506105146111ac565b6040518082815260200191505060405180910390f35b34801561053657600080fd5b506105796004803603602081101561054d57600080fd5b81019080803573ffffffffffffffffffffffffffffffffffffffff1690602001909291905050506111b2565b604051808215151515815260200191505060405180910390f35b34801561059f57600080fd5b506105e2600480360360208110156105b657600080fd5b81019080803573ffffffffffffffffffffffffffffffffffffffff1690602001909291905050506111d2565b005b6000806000303073ffffffffffffffffffffffffffffffffffffffff1631600a54925092509250909192565b61064f828260006040519080825280601f01601f1916602001820160405280156106495781602001600182028038833980820191505090505b50610653565b5050565b61065b6112f4565b73ffffffffffffffffffffffffffffffffffffffff163373ffffffffffffffffffffffffffffffffffffffff161461069257600080fd5b6000826040516020018082805190602001908083835b602083106106cb57805182526020820191506020810190506020830392506106a8565b6001836020036101000a0380198251168184511680821785525050505050509050019150506040516020818303038152906040528051906020012060001c90506002818161071557fe5b066007819055506001600754141561075b5760016008600086815260200190815260200160002060020160006101000a81548160ff021916908315150217905550610821565b60006008600086815260200190815260200160002060020160006101000a81548160ff0219169083151502179055506008600085815260200190815260200160002060000160009054906101000a900473ffffffffffffffffffffffffffffffffffffffff1673ffffffffffffffffffffffffffffffffffffffff166108fc60026008600088815260200190815260200160002060010154029081150290604051600060405180830381858888f1935050505015801561081f573d6000803e3d6000fd5b505b6000600960006008600088815260200190815260200160002060000160009054906101000a900473ffffffffffffffffffffffffffffffffffffffff1673ffffffffffffffffffffffffffffffffffffffff1673ffffffffffffffffffffffffffffffffffffffff16815260200190815260200160002060006101000a81548160ff0219169083151502179055507fc4f033ddebbc1962745a287ffb868502365093b3cad15f8edc3c60c45f4eb08c816040518082815260200191505060405180910390a16008600085815260200190815260200160002060000160009054906101000a900473ffffffffffffffffffffffffffffffffffffffff1673ffffffffffffffffffffffffffffffffffffffff167f6938cbf453af775aeb0f0d1c25d85e2b060360487baf9892b54261adcb6b2d318560086000888152602001908152602001600020600101546008600089815260200190815260200160002060020160009054906101000a900460ff166040518084815260200183815260200182151515158152602001935050505060405180910390a250505050565b60086020528060005260406000206000915090508060000160009054906101000a900473ffffffffffffffffffffffffffffffffffffffff16908060010154908060020160009054906101000a900460ff16905083565b60008060009054906101000a900473ffffffffffffffffffffffffffffffffffffffff1673ffffffffffffffffffffffffffffffffffffffff163373ffffffffffffffffffffffffffffffffffffffff1614610abb576040517f08c379a000000000000000000000000000000000000000000000000000000000815260040180806020018281038252602e81526020018061329c602e913960400191505060405180910390fd5b3373ffffffffffffffffffffffffffffffffffffffff166108fc3073ffffffffffffffffffffffffffffffffffffffff16319081150290604051600060405180830381858888f19350505050158015610b18573d6000803e3d6000fd5b5060003073ffffffffffffffffffffffffffffffffffffffff163114610b3a57fe5b3073ffffffffffffffffffffffffffffffffffffffff1631905090565b600a5481565b60008060009050600062030d4090506000610b7a83600184611614565b90507fc4dc360d0a9c0677a3379ae0a3d81e887f761e65fdf3d7e00859d1bcd3c473896040518080602001828103825260298152602001806132ca6029913960400191505060405180910390a180935050505090565b60008060009054906101000a900473ffffffffffffffffffffffffffffffffffffffff1673ffffffffffffffffffffffffffffffffffffffff163373ffffffffffffffffffffffffffffffffffffffff1614610c77576040517f08c379a000000000000000000000000000000000000000000000000000000000815260040180806020018281038252602e81526020018061329c602e913960400191505060405180910390fd5b6000341415610c8557600080fd5b7fed7d0ddcc17abdb3935a0a23cd93e91b449dfeac7fd0def9f481ed5b37e18c4d3334604051808373ffffffffffffffffffffffffffffffffffffffff1673ffffffffffffffffffffffffffffffffffffffff1681526020018281526020019250505060405180910390a134905090565b6000662386f26fc1000080341015610d76576040517f08c379a00000000000000000000000000000000000000000000000000000000081526004018080602001828103825260208152602001807f5468652076616c75652070726f7669646564206973206e6f7420656e6f75676881525060200191505060405180910390fd5b343073ffffffffffffffffffffffffffffffffffffffff16311015610de6576040517f08c379a00000000000000000000000000000000000000000000000000000000081526004018080602001828103825260268152602001806132f36026913960400191505060405180910390fd5b6000600960003373ffffffffffffffffffffffffffffffffffffffff1673ffffffffffffffffffffffffffffffffffffffff16815260200190815260200160002060009054906101000a900460ff1661117d5734600a600082825401925050819055506001600960003373ffffffffffffffffffffffffffffffffffffffff1673ffffffffffffffffffffffffffffffffffffffff16815260200190815260200160002060006101000a81548160ff021916908315150217905550610ea9610b5d565b600681905550600060075490507f20d932006281d267f137cd3921b707c2097e1f041b1291181cc3d0e86f449ebb333484604051808473ffffffffffffffffffffffffffffffffffffffff1673ffffffffffffffffffffffffffffffffffffffff16815260200183815260200182151515158152602001935050505060405180910390a16001811415611059576001915060405180606001604052803373ffffffffffffffffffffffffffffffffffffffff1681526020013481526020016001151581525060086000600654815260200190815260200160002060008201518160000160006101000a81548173ffffffffffffffffffffffffffffffffffffffff021916908373ffffffffffffffffffffffffffffffffffffffff1602179055506020820151816001015560408201518160020160006101000a81548160ff02191690831515021790555090505034600202600a600082825403925050819055503373ffffffffffffffffffffffffffffffffffffffff166108fc346002029081150290604051600060405180830381858888f19350505050158015611053573d6000803e3d6000fd5b5061111b565b6000915060405180606001604052803373ffffffffffffffffffffffffffffffffffffffff1681526020013481526020016000151581525060086000600654815260200190815260200160002060008201518160000160006101000a81548173ffffffffffffffffffffffffffffffffffffffff021916908373ffffffffffffffffffffffffffffffffffffffff1602179055506020820151816001015560408201518160020160006101000a81548160ff0219169083151502179055509050505b6000600960003373ffffffffffffffffffffffffffffffffffffffff1673ffffffffffffffffffffffffffffffffffffffff16815260200190815260200160002060006101000a81548160ff0219169083151502179055508193505050611183565b60009250505b5090565b6000809054906101000a900473ffffffffffffffffffffffffffffffffffffffff1681565b60075481565b60096020528060005260406000206000915054906101000a900460ff1681565b6000809054906101000a900473ffffffffffffffffffffffffffffffffffffffff1673ffffffffffffffffffffffffffffffffffffffff163373ffffffffffffffffffffffffffffffffffffffff1614611277576040517f08c379a000000000000000000000000000000000000000000000000000000000815260040180806020018281038252602e81526020018061329c602e913960400191505060405180910390fd5b600073ffffffffffffffffffffffffffffffffffffffff168173ffffffffffffffffffffffffffffffffffffffff1614156112b157600080fd5b806000806101000a81548173ffffffffffffffffffffffffffffffffffffffff021916908373ffffffffffffffffffffffffffffffffffffffff16021790555050565b60008073ffffffffffffffffffffffffffffffffffffffff16600260009054906101000a900473ffffffffffffffffffffffffffffffffffffffff1673ffffffffffffffffffffffffffffffffffffffff16148061137c5750600061137a600260009054906101000a900473ffffffffffffffffffffffffffffffffffffffff16611baf565b145b1561138d5761138b6000611bba565b505b600260009054906101000a900473ffffffffffffffffffffffffffffffffffffffff1673ffffffffffffffffffffffffffffffffffffffff166338cc48316040518163ffffffff1660e01b8152600401602060405180830381600087803b1580156113f757600080fd5b505af115801561140b573d6000803e3d6000fd5b505050506040513d602081101561142157600080fd5b810190808051906020019092919050505073ffffffffffffffffffffffffffffffffffffffff16600160009054906101000a900473ffffffffffffffffffffffffffffffffffffffff1673ffffffffffffffffffffffffffffffffffffffff161461156c57600260009054906101000a900473ffffffffffffffffffffffffffffffffffffffff1673ffffffffffffffffffffffffffffffffffffffff166338cc48316040518163ffffffff1660e01b8152600401602060405180830381600087803b1580156114f057600080fd5b505af1158015611504573d6000803e3d6000fd5b505050506040513d602081101561151a57600080fd5b8101908080519060200190929190505050600160006101000a81548173ffffffffffffffffffffffffffffffffffffffff021916908373ffffffffffffffffffffffffffffffffffffffff1602179055505b600160009054906101000a900473ffffffffffffffffffffffffffffffffffffffff1673ffffffffffffffffffffffffffffffffffffffff1663c281d19e6040518163ffffffff1660e01b815260040160206040518083038186803b1580156115d457600080fd5b505afa1580156115e8573d6000803e3d6000fd5b505050506040513d60208110156115fe57600080fd5b8101908080519060200190929190505050905090565b60008083118015611626575060208311155b61162f57600080fd5b600a84029350606060016040519080825280601f01601f19166020018201604052801561166b5781602001600182028038833980820191505090505b5090508360f81b8160008151811061167f57fe5b60200101907effffffffffffffffffffffffffffffffffffffffffffffffffffffffffffff1916908160001a905350606060206040519080825280601f01601f1916602001820160405280156116e45781602001600182028038833980820191505090505b509050606060206040519080825280601f01601f19166020018201604052801561171d5781602001600182028038833980820191505090505b509050600061172a611bcb565b905060208352424118600143034018602084015260208252806020830152606060206040519080825280601f01601f19166020018201604052801561177e5781602001600182028038833980820191505090505b509050886020820152606060086040519080825280601f01601f1916602001820160405280156117bd5781602001600182028038833980820191505090505b5090506117d08260186008846000611eeb565b506117d96131b5565b6040518060800160405280878152602001888152602001868152602001848152509050600061183e6040518060400160405280600681526020017f72616e646f6d0000000000000000000000000000000000000000000000000000815250838c611f4a565b9050606060086040519080825280601f01601f1916602001820160405280156118765781602001600182028038833980820191505090505b50905060208401517f0100000000000000000000000000000000000000000000000000000000000000810460278301537e01000000000000000000000000000000000000000000000000000000000000810460268301537d010000000000000000000000000000000000000000000000000000000000810460258301537c0100000000000000000000000000000000000000000000000000000000810460248301537b01000000000000000000000000000000000000000000000000000000810460238301537a010000000000000000000000000000000000000000000000000000810460228301537901000000000000000000000000000000000000000000000000008104602183015378010000000000000000000000000000000000000000000000008104602083015350611b9c8282856001600481106119b557fe5b60200201516002876000600481106119c957fe5b60200201516040518082805190602001908083835b60208310611a0157805182526020820191506020810190506020830392506119de565b6001836020036101000a038019825116818451168082178552505050505050905001915050602060405180830381855afa158015611a43573d6000803e3d6000fd5b5050506040513d6020811015611a5857600080fd5b810190808051906020019092919050505087600260048110611a7657fe5b60200201516040516020018085805190602001908083835b60208310611ab15780518252602082019150602081019050602083039250611a8e565b6001836020036101000a03801982511681845116808217855250505050505090500184805190602001908083835b60208310611b025780518252602082019150602081019050602083039250611adf565b6001836020036101000a03801982511681845116808217855250505050505090500183815260200182805190602001908083835b60208310611b595780518252602082019150602081019050602083039250611b36565b6001836020036101000a038019825116818451168082178552505050505050905001945050505050604051602081830303815290604052805190602001206122b9565b8199505050505050505050509392505050565b6000813b9050919050565b6000611bc46122d5565b9050919050565b60008073ffffffffffffffffffffffffffffffffffffffff16600260009054906101000a900473ffffffffffffffffffffffffffffffffffffffff1673ffffffffffffffffffffffffffffffffffffffff161480611c5357506000611c51600260009054906101000a900473ffffffffffffffffffffffffffffffffffffffff16611baf565b145b15611c6457611c626000611bba565b505b600260009054906101000a900473ffffffffffffffffffffffffffffffffffffffff1673ffffffffffffffffffffffffffffffffffffffff166338cc48316040518163ffffffff1660e01b8152600401602060405180830381600087803b158015611cce57600080fd5b505af1158015611ce2573d6000803e3d6000fd5b505050506040513d6020811015611cf857600080fd5b810190808051906020019092919050505073ffffffffffffffffffffffffffffffffffffffff16600160009054906101000a900473ffffffffffffffffffffffffffffffffffffffff1673ffffffffffffffffffffffffffffffffffffffff1614611e4357600260009054906101000a900473ffffffffffffffffffffffffffffffffffffffff1673ffffffffffffffffffffffffffffffffffffffff166338cc48316040518163ffffffff1660e01b8152600401602060405180830381600087803b158015611dc757600080fd5b505af1158015611ddb573d6000803e3d6000fd5b505050506040513d6020811015611df157600080fd5b8101908080519060200190929190505050600160006101000a81548173ffffffffffffffffffffffffffffffffffffffff021916908373ffffffffffffffffffffffffffffffffffffffff1602179055505b600160009054906101000a900473ffffffffffffffffffffffffffffffffffffffff1673ffffffffffffffffffffffffffffffffffffffff1663abaa5f3e6040518163ffffffff1660e01b815260040160206040518083038186803b158015611eab57600080fd5b505afa158015611ebf573d6000803e3d6000fd5b505050506040513d6020811015611ed557600080fd5b8101908080519060200190929190505050905090565b6060600082850190508084511015611f0257600080fd5b600086602001905060008460200190505b868860200101821015611f3b5781890151808288015250602082019150602081019050611f13565b85935050505095945050505050565b60008073ffffffffffffffffffffffffffffffffffffffff16600260009054906101000a900473ffffffffffffffffffffffffffffffffffffffff1673ffffffffffffffffffffffffffffffffffffffff161480611fd257506000611fd0600260009054906101000a900473ffffffffffffffffffffffffffffffffffffffff16611baf565b145b15611fe357611fe16000611bba565b505b600260009054906101000a900473ffffffffffffffffffffffffffffffffffffffff1673ffffffffffffffffffffffffffffffffffffffff166338cc48316040518163ffffffff1660e01b8152600401602060405180830381600087803b15801561204d57600080fd5b505af1158015612061573d6000803e3d6000fd5b505050506040513d602081101561207757600080fd5b810190808051906020019092919050505073ffffffffffffffffffffffffffffffffffffffff16600160009054906101000a900473ffffffffffffffffffffffffffffffffffffffff1673ffffffffffffffffffffffffffffffffffffffff16146121c257600260009054906101000a900473ffffffffffffffffffffffffffffffffffffffff1673ffffffffffffffffffffffffffffffffffffffff166338cc48316040518163ffffffff1660e01b8152600401602060405180830381600087803b15801561214657600080fd5b505af115801561215a573d6000803e3d6000fd5b505050506040513d602081101561217057600080fd5b8101908080519060200190929190505050600160006101000a81548173ffffffffffffffffffffffffffffffffffffffff021916908373ffffffffffffffffffffffffffffffffffffffff1602179055505b606060046040519080825280602002602001820160405280156121f957816020015b60608152602001906001900390816121e45790505b5090508360006004811061220957fe5b60200201518160008151811061221b57fe5b60200260200101819052508360016004811061223357fe5b60200201518160018151811061224557fe5b60200260200101819052508360026004811061225d57fe5b60200201518160028151811061226f57fe5b60200260200101819052508360036004811061228757fe5b60200201518160038151811061229957fe5b60200260200101819052506122af85828561282c565b9150509392505050565b8060046000848152602001908152602001600020819055505050565b6000806122f5731d3b2638a7cc9f2cb3d298a3da7a90b67e5506ed611baf565b111561239757731d3b2638a7cc9f2cb3d298a3da7a90b67e5506ed600260006101000a81548173ffffffffffffffffffffffffffffffffffffffff021916908373ffffffffffffffffffffffffffffffffffffffff16021790555061238e6040518060400160405280600b81526020017f6574685f6d61696e6e6574000000000000000000000000000000000000000000815250612d92565b60019050612829565b60006123b673c03a2615d5efaf5f49f60b7bb6583eaec212fdf1611baf565b11156124585773c03a2615d5efaf5f49f60b7bb6583eaec212fdf1600260006101000a81548173ffffffffffffffffffffffffffffffffffffffff021916908373ffffffffffffffffffffffffffffffffffffffff16021790555061244f6040518060400160405280600c81526020017f6574685f726f707374656e330000000000000000000000000000000000000000815250612d92565b60019050612829565b600061247773b7a07bcf2ba2f2703b24c0691b5278999c59ac7e611baf565b11156125195773b7a07bcf2ba2f2703b24c0691b5278999c59ac7e600260006101000a81548173ffffffffffffffffffffffffffffffffffffffff021916908373ffffffffffffffffffffffffffffffffffffffff1602179055506125106040518060400160405280600981526020017f6574685f6b6f76616e0000000000000000000000000000000000000000000000815250612d92565b60019050612829565b600061253873146500cfd35b22e4a392fe0adc06de1a1368ed48611baf565b11156125da5773146500cfd35b22e4a392fe0adc06de1a1368ed48600260006101000a81548173ffffffffffffffffffffffffffffffffffffffff021916908373ffffffffffffffffffffffffffffffffffffffff1602179055506125d16040518060400160405280600b81526020017f6574685f72696e6b656279000000000000000000000000000000000000000000815250612d92565b60019050612829565b60006125f973a2998efd205fb9d4b4963afb70778d6354ad3a41611baf565b111561269b5773a2998efd205fb9d4b4963afb70778d6354ad3a41600260006101000a81548173ffffffffffffffffffffffffffffffffffffffff021916908373ffffffffffffffffffffffffffffffffffffffff1602179055506126926040518060400160405280600a81526020017f6574685f676f65726c6900000000000000000000000000000000000000000000815250612d92565b60019050612829565b60006126ba736f485c8bf6fc43ea212e93bbf8ce046c7f1cb475611baf565b111561271e57736f485c8bf6fc43ea212e93bbf8ce046c7f1cb475600260006101000a81548173ffffffffffffffffffffffffffffffffffffffff021916908373ffffffffffffffffffffffffffffffffffffffff16021790555060019050612829565b600061273d7320e12a1f859b3feae5fb2a0a32c18f5a65555bbf611baf565b11156127a1577320e12a1f859b3feae5fb2a0a32c18f5a65555bbf600260006101000a81548173ffffffffffffffffffffffffffffffffffffffff021916908373ffffffffffffffffffffffffffffffffffffffff16021790555060019050612829565b60006127c07351efaf4c8b3c9afbd5ab9f4bbc82784ab6ef8faa611baf565b1115612824577351efaf4c8b3c9afbd5ab9f4bbc82784ab6ef8faa600260006101000a81548173ffffffffffffffffffffffffffffffffffffffff021916908373ffffffffffffffffffffffffffffffffffffffff16021790555060019050612829565b600090505b90565b60008073ffffffffffffffffffffffffffffffffffffffff16600260009054906101000a900473ffffffffffffffffffffffffffffffffffffffff1673ffffffffffffffffffffffffffffffffffffffff1614806128b4575060006128b2600260009054906101000a900473ffffffffffffffffffffffffffffffffffffffff16611baf565b145b156128c5576128c36000611bba565b505b600260009054906101000a900473ffffffffffffffffffffffffffffffffffffffff1673ffffffffffffffffffffffffffffffffffffffff166338cc48316040518163ffffffff1660e01b8152600401602060405180830381600087803b15801561292f57600080fd5b505af1158015612943573d6000803e3d6000fd5b505050506040513d602081101561295957600080fd5b810190808051906020019092919050505073ffffffffffffffffffffffffffffffffffffffff16600160009054906101000a900473ffffffffffffffffffffffffffffffffffffffff1673ffffffffffffffffffffffffffffffffffffffff1614612aa457600260009054906101000a900473ffffffffffffffffffffffffffffffffffffffff1673ffffffffffffffffffffffffffffffffffffffff166338cc48316040518163ffffffff1660e01b8152600401602060405180830381600087803b158015612a2857600080fd5b505af1158015612a3c573d6000803e3d6000fd5b505050506040513d6020811015612a5257600080fd5b8101908080519060200190929190505050600160006101000a81548173ffffffffffffffffffffffffffffffffffffffff021916908373ffffffffffffffffffffffffffffffffffffffff1602179055505b6000600160009054906101000a900473ffffffffffffffffffffffffffffffffffffffff1673ffffffffffffffffffffffffffffffffffffffff16632ef3accc86856040518363ffffffff1660e01b81526004018080602001838152602001828103825284818151815260200191508051906020019080838360005b83811015612b3b578082015181840152602081019050612b20565b50505050905090810190601f168015612b685780820380516001836020036101000a031916815260200191505b509350505050602060405180830381600087803b158015612b8857600080fd5b505af1158015612b9c573d6000803e3d6000fd5b505050506040513d6020811015612bb257600080fd5b81019080805190602001909291905050509050823a02670de0b6b3a764000001811115612be5576000801b915050612d8b565b6060612bf085612dac565b9050600160009054906101000a900473ffffffffffffffffffffffffffffffffffffffff1673ffffffffffffffffffffffffffffffffffffffff1663c55c1cb68360008985896040518663ffffffff1660e01b8152600401808581526020018060200180602001848152602001838103835286818151815260200191508051906020019080838360005b83811015612c95578082015181840152602081019050612c7a565b50505050905090810190601f168015612cc25780820380516001836020036101000a031916815260200191505b50838103825285818151815260200191508051906020019080838360005b83811015612cfb578082015181840152602081019050612ce0565b50505050905090810190601f168015612d285780820380516001836020036101000a031916815260200191505b5096505050505050506020604051808303818588803b158015612d4a57600080fd5b505af1158015612d5e573d6000803e3d6000fd5b50505050506040513d6020811015612d7557600080fd5b8101908080519060200190929190505050925050505b9392505050565b8060039080519060200190612da89291906131dc565b5050565b6060612db6612e2c565b612dbe61325c565b612dca81610400612e38565b612dd381612e82565b60008090505b8351811015612e1557612e08848281518110612df157fe5b602002602001015183612e9090919063ffffffff16565b8080600101915050612dd9565b50612e1f81612eb5565b8060000151915050919050565b60405180590338823950565b6000819050600060208281612e4957fe5b0614612e625760208181612e5957fe5b06602003810190505b808360200181815250506040518084526000815281810160405250505050565b612e8d816004612ec3565b50565b612e9d8260028351612ee4565b612eb0818361302490919063ffffffff16565b505050565b612ec0816007612ec3565b50565b612ee0601f60058360ff16901b17836130cf90919063ffffffff16565b5050565b60178111612f1057612f0b8160058460ff16901b60ff1617846130cf90919063ffffffff16565b61301f565b60ff8111612f5157612f35601860058460ff16901b17846130cf90919063ffffffff16565b612f4b8160018561310f9092919063ffffffff16565b5061301e565b61ffff8111612f9357612f77601960058460ff16901b17846130cf90919063ffffffff16565b612f8d8160028561310f9092919063ffffffff16565b5061301d565b63ffffffff8111612fd757612fbb601a60058460ff16901b17846130cf90919063ffffffff16565b612fd18160048561310f9092919063ffffffff16565b5061301c565b67ffffffffffffffff811161301b57613003601b60058460ff16901b17846130cf90919063ffffffff16565b6130198160088561310f9092919063ffffffff16565b505b5b5b5b5b505050565b61302c61325c565b8260200151836000015151835101111561305c5761305b83600261305586602001518651613176565b02613192565b5b60008060008451905085518051602081830101945086518101825260208701935050505b602081106130a35781518352602083019250602082019150602081039050613080565b60006001826020036101000a039050801983511681855116818117865250508694505050505092915050565b816020015160018360000151510111156130f5576130f4826002846020015102613192565b5b815180516020818301018381536001820183525050505050565b61311761325c565b8360200151846000015151830111156131455761314484600261313e876020015186613176565b02613192565b5b60006001836101000a0390508451805184818301018684198251161781528582018352505050849150509392505050565b6000818311156131885782905061318c565b8190505b92915050565b6060826000015190506131a58383612e38565b6131af8382613024565b50505050565b60405180608001604052806004905b60608152602001906001900390816131c45790505090565b828054600181600116156101000203166002900490600052602060002090601f016020900481019282601f1061321d57805160ff191683800117855561324b565b8280016001018555821561324b579182015b8281111561324a57825182559160200191906001019061322f565b5b5090506132589190613276565b5090565b604051806040016040528060608152602001600081525090565b61329891905b8082111561329457600081600090555060010161327c565b5090565b9056fe596f7520617265206e6f7420656e7469746c656420746f206578656375746520746869732066756e6374696f6e2e5175657279206973206f6e20746865207761792c2077616974696e6720666f7220726573706f6e736554686520636f6e747261637420646f65736e2774206861766520656e6f7567682066756e6473a265627a7a72315820df9fb83ab00992a75fa1174beb294f68fd606f2cbb64fb3b63284d476a973d5f64736f6c634300050c00325175657279206973206f6e20746865207761792c2077616974696e6720666f7220726573706f6e7365",
  "source": "import \"./Ownable.sol\";\nimport \"./provableAPI.sol\";\n\npragma solidity 0.5.12;\n\ncontract Coinflip is Ownable, usingProvable {\n\n    uint256 constant NUM_RANDOM_BYTES_REQUESTED = 1; // Enough memory to store a number in the 0-255 range\n    bytes32 queryId;                                 // Callback ID \n    uint256 public latestNumber;                     // 0 or 1\n\n    struct Bet {\n        address payable player; \n        uint value;                 // How much the player is betting\n        bool result;                // Result of the bet (0 or 1)\n    }\n\n    mapping (bytes32 => Bet) public results;\n    mapping (address => bool) public waiting;\n\n    constructor() public {\n        provable_setProof(proofType_Ledger);\n        update();\n    }\n\n    uint public contractBalance;\n\n    event bet(address user, uint bet, bool success);\n    event betTaken(address indexed player, bytes32 Id, uint value, bool result);\n    event betPlaced(address indexed player,bytes32 queryId, uint value);\n    event funded(address owner, uint funding);\n    event randomNumberGenerated(uint256 randomNumber);\n    event LogNewProvableQuery(string description);\n\n    modifier minimumBet(uint cost){\n        require(msg.value >= cost, \"The value provided is not enough\");\n        _;\n    }\n\n    function __callback(bytes32 _queryId, string memory _result, bytes memory _proof) public {\n        require(msg.sender == provable_cbAddress());\n\n        uint256 randomNumber = uint256(keccak256(abi.encodePacked(_result)));\n        latestNumber = randomNumber % 2;\n\n        if (latestNumber == 1) {\n            results[_queryId].result = true;\n        }\n        else {\n            results[_queryId].result = false;\n            results[_queryId].player.transfer((results[_queryId].value)*2);\n        }\n\n        //Player address is not on waiting any more and can play again\n        waiting[results[_queryId].player] = false;\n        emit randomNumberGenerated(randomNumber);\n        emit betTaken(results[_queryId].player, _queryId, results[_queryId].value, results[_queryId].result);\n    }\n\n    function update() public payable returns (bytes32) {\n\n        uint256 QUERY_EXECUTION_DELAY = 0;\n        uint256 GAS_FOR_CALLBACK = 200000;\n        bytes32 id = provable_newRandomDSQuery(QUERY_EXECUTION_DELAY, NUM_RANDOM_BYTES_REQUESTED, GAS_FOR_CALLBACK);\n\n        emit LogNewProvableQuery(\"Query is on the way, waiting for response\");\n\n        return id;\n    } \n\n    function flip() public payable minimumBet(0.01 ether) returns(bool){\n        require(address(this).balance >= msg.value, \"The contract doesn't have enough funds\");\n\n        bool success;\n\n        if(!waiting[msg.sender]){\n            contractBalance += msg.value;\n\n            waiting[msg.sender] = true;\n            queryId = update();\n\n            uint result = latestNumber;\n            emit bet(msg.sender, msg.value, success);\n\n            if (result == 1){\n                success = true;\n                results[queryId] = Bet({player: msg.sender, value: msg.value, result: true});\n                contractBalance -= 2*msg.value;\n                msg.sender.transfer(2*msg.value);\n            }\n            else{\n                success = false;\n                results[queryId] = Bet({player: msg.sender, value: msg.value, result: false});\n            }\n\n            waiting[msg.sender] = false;\n            return success;            \n        }\n        else{\n            return false;\n        }\n\n        emit bet(msg.sender, msg.value, success);\n        emit betPlaced(msg.sender, queryId, msg.value);\n        return false;\n    }\n\n    function withdrawAll () public onlyOwner returns(uint){\n        msg.sender.transfer(address(this).balance);\n        assert(address(this).balance == 0);\n        return address(this).balance;\n    }\n\n    function getBalance() public view returns (address, uint, uint) {\n        return(address(this), address(this).balance, contractBalance);\n    }\n\n    function fundContract() public payable onlyOwner returns(uint){\n        require(msg.value != 0);\n        emit funded(msg.sender, msg.value);\n        return msg.value;\n    }\n}",
  "sourcePath": "/home/autodidactic/lib/projects/coinflip-dapp/contracts/Coinflip.sol",
  "compiler": {
    "name": "solc",
    "version": "0.5.12+commit.7709ece9.Emscripten.clang"
  },
  "schemaVersion": "3.0.16",
  "updatedAt": "2020-03-25T19:41:36.569Z",
  "devdoc": {
    "methods": {
      "__callback(bytes32,string)": {
        "details": "The following `__callback` functions are just placeholders ideally     meant to be defined in child contract when proofs are used.     The function bodies simply silence compiler warnings."
      }
    }
  },
  "userdoc": {
    "methods": {}
  }
}