{
  "contractName": "Coinflip",
  "abi": [
    {
      "inputs": [],
      "payable": false,
      "stateMutability": "nonpayable",
      "type": "constructor"
    },
    {
      "anonymous": false,
      "inputs": [
        {
          "indexed": false,
          "internalType": "uint256",
          "name": "randomNumber",
          "type": "uint256"
        }
      ],
      "name": "generatedRandomNumber",
      "type": "event"
    },
    {
      "anonymous": false,
      "inputs": [
        {
          "indexed": false,
          "internalType": "string",
          "name": "description",
          "type": "string"
        }
      ],
      "name": "logNewProvableQuery",
      "type": "event"
    },
    {
      "anonymous": false,
      "inputs": [
        {
          "indexed": false,
          "internalType": "address",
          "name": "player",
          "type": "address"
        },
        {
          "indexed": false,
          "internalType": "bytes32",
          "name": "queryId",
          "type": "bytes32"
        }
      ],
      "name": "logQueryId",
      "type": "event"
    },
    {
      "anonymous": false,
      "inputs": [
        {
          "indexed": true,
          "internalType": "bytes32",
          "name": "queryId",
          "type": "bytes32"
        },
        {
          "indexed": false,
          "internalType": "address",
          "name": "player",
          "type": "address"
        },
        {
          "indexed": false,
          "internalType": "uint256",
          "name": "prize",
          "type": "uint256"
        },
        {
          "indexed": false,
          "internalType": "bool",
          "name": "won",
          "type": "bool"
        }
      ],
      "name": "userWon",
      "type": "event"
    },
    {
      "constant": true,
      "inputs": [
        {
          "internalType": "address",
          "name": "",
          "type": "address"
        }
      ],
      "name": "PlayerQueryId",
      "outputs": [
        {
          "internalType": "bytes32",
          "name": "",
          "type": "bytes32"
        }
      ],
      "payable": false,
      "stateMutability": "view",
      "type": "function"
    },
    {
      "constant": true,
      "inputs": [
        {
          "internalType": "bytes32",
          "name": "",
          "type": "bytes32"
        }
      ],
      "name": "QueryIdPlayer",
      "outputs": [
        {
          "internalType": "address",
          "name": "",
          "type": "address"
        }
      ],
      "payable": false,
      "stateMutability": "view",
      "type": "function"
    },
    {
      "constant": true,
      "inputs": [],
      "name": "contractOwner",
      "outputs": [
        {
          "internalType": "address",
          "name": "",
          "type": "address"
        }
      ],
      "payable": false,
      "stateMutability": "view",
      "type": "function"
    },
    {
      "constant": true,
      "inputs": [
        {
          "internalType": "address",
          "name": "",
          "type": "address"
        }
      ],
      "name": "isPlayerWaiting",
      "outputs": [
        {
          "internalType": "bool",
          "name": "",
          "type": "bool"
        }
      ],
      "payable": false,
      "stateMutability": "view",
      "type": "function"
    },
    {
      "constant": true,
      "inputs": [
        {
          "internalType": "address",
          "name": "",
          "type": "address"
        }
      ],
      "name": "playersCollectablePrizes",
      "outputs": [
        {
          "internalType": "uint256",
          "name": "",
          "type": "uint256"
        }
      ],
      "payable": false,
      "stateMutability": "view",
      "type": "function"
    },
    {
      "constant": true,
      "inputs": [
        {
          "internalType": "address",
          "name": "",
          "type": "address"
        }
      ],
      "name": "playersLastBet",
      "outputs": [
        {
          "internalType": "uint256",
          "name": "",
          "type": "uint256"
        }
      ],
      "payable": false,
      "stateMutability": "view",
      "type": "function"
    },
    {
      "constant": true,
      "inputs": [
        {
          "internalType": "address",
          "name": "",
          "type": "address"
        }
      ],
      "name": "playersLastPlay",
      "outputs": [
        {
          "internalType": "uint256",
          "name": "",
          "type": "uint256"
        }
      ],
      "payable": false,
      "stateMutability": "view",
      "type": "function"
    },
    {
      "constant": true,
      "inputs": [
        {
          "internalType": "address",
          "name": "",
          "type": "address"
        }
      ],
      "name": "playersPotentialWinnings",
      "outputs": [
        {
          "internalType": "uint256",
          "name": "",
          "type": "uint256"
        }
      ],
      "payable": false,
      "stateMutability": "view",
      "type": "function"
    },
    {
      "constant": false,
      "inputs": [
        {
          "internalType": "address",
          "name": "newOwner",
          "type": "address"
        }
      ],
      "name": "transferOwnership",
      "outputs": [],
      "payable": false,
      "stateMutability": "nonpayable",
      "type": "function"
    },
    {
      "constant": true,
      "inputs": [],
      "name": "unlockedBalance",
      "outputs": [
        {
          "internalType": "uint256",
          "name": "",
          "type": "uint256"
        }
      ],
      "payable": false,
      "stateMutability": "view",
      "type": "function"
    },
    {
      "constant": false,
      "inputs": [
        {
          "internalType": "bytes32",
          "name": "_myid",
          "type": "bytes32"
        },
        {
          "internalType": "string",
          "name": "_result",
          "type": "string"
        }
      ],
      "name": "__callback",
      "outputs": [],
      "payable": false,
      "stateMutability": "nonpayable",
      "type": "function"
    },
    {
      "constant": false,
      "inputs": [
        {
          "internalType": "bytes32",
          "name": "_queryId",
          "type": "bytes32"
        },
        {
          "internalType": "string",
          "name": "_result",
          "type": "string"
        },
        {
          "internalType": "bytes",
          "name": "_proof",
          "type": "bytes"
        }
      ],
      "name": "__callback",
      "outputs": [],
      "payable": false,
      "stateMutability": "nonpayable",
      "type": "function"
    },
    {
      "constant": false,
      "inputs": [],
      "name": "getRandomFromOracle",
      "outputs": [
        {
          "internalType": "bytes32",
          "name": "queryId",
          "type": "bytes32"
        }
      ],
      "payable": true,
      "stateMutability": "payable",
      "type": "function"
    },
    {
      "constant": false,
      "inputs": [],
      "name": "getCollectablePrizes",
      "outputs": [
        {
          "internalType": "uint256",
          "name": "balance",
          "type": "uint256"
        }
      ],
      "payable": false,
      "stateMutability": "nonpayable",
      "type": "function"
    },
    {
      "constant": false,
      "inputs": [],
      "name": "collectPrizes",
      "outputs": [
        {
          "internalType": "uint256",
          "name": "collected",
          "type": "uint256"
        }
      ],
      "payable": false,
      "stateMutability": "nonpayable",
      "type": "function"
    },
    {
      "constant": false,
      "inputs": [],
      "name": "getLatestQueryId",
      "outputs": [
        {
          "internalType": "bytes32",
          "name": "queryID",
          "type": "bytes32"
        }
      ],
      "payable": false,
      "stateMutability": "nonpayable",
      "type": "function"
    },
    {
      "constant": false,
      "inputs": [
        {
          "internalType": "uint256",
          "name": "userPlay",
          "type": "uint256"
        }
      ],
      "name": "play",
      "outputs": [
        {
          "internalType": "bytes32",
          "name": "queryID",
          "type": "bytes32"
        }
      ],
      "payable": true,
      "stateMutability": "payable",
      "type": "function"
    }
  ],
  "bytecode": "0x60806040523480156200001157600080fd5b50336000806101000a81548173ffffffffffffffffffffffffffffffffffffffff021916908373ffffffffffffffffffffffffffffffffffffffff160217905550620000626200006960201b60201c565b5062002004565b60008060009050600062030d4090506200008c826001836200014d60201b60201c565b92507f94f2559b5e2b297de3db1587daf2352e872ada3dad01dab9ee3733592fa22ed360405180806020018281038252602c81526020018062005459602c913960400191505060405180910390a17fd0edb2e216faee7876857e78c089ec106caa096d4c7bb013cdc78f85173ff63f3384604051808373ffffffffffffffffffffffffffffffffffffffff1673ffffffffffffffffffffffffffffffffffffffff1681526020018281526020019250505060405180910390a1829250505090565b6000808311801562000160575060208311155b6200016a57600080fd5b600a84029350606060016040519080825280601f01601f191660200182016040528015620001a75781602001600182028038833980820191505090505b5090508360f81b81600081518110620001bc57fe5b60200101907effffffffffffffffffffffffffffffffffffffffffffffffffffffffffffff1916908160001a905350606060206040519080825280601f01601f191660200182016040528015620002225781602001600182028038833980820191505090505b509050606060206040519080825280601f01601f1916602001820160405280156200025c5781602001600182028038833980820191505090505b5090506000620002716200072060201b60201c565b905060208352424118600143034018602084015260208252806020830152606060206040519080825280601f01601f191660200182016040528015620002c65781602001600182028038833980820191505090505b509050886020820152606060086040519080825280601f01601f191660200182016040528015620003065781602001600182028038833980820191505090505b50905062000321826018600884600062000a5c60201b60201c565b506200032c62001f13565b60405180608001604052808781526020018881526020018681526020018481525090506000620003996040518060400160405280600681526020017f72616e646f6d0000000000000000000000000000000000000000000000000000815250838c62000abe60201b60201c565b9050606060086040519080825280601f01601f191660200182016040528015620003d25781602001600182028038833980820191505090505b50905060208401517f0100000000000000000000000000000000000000000000000000000000000000810460278301537e01000000000000000000000000000000000000000000000000000000000000810460268301537d010000000000000000000000000000000000000000000000000000000000810460258301537c0100000000000000000000000000000000000000000000000000000000810460248301537b01000000000000000000000000000000000000000000000000000000810460238301537a0100000000000000000000000000000000000000000000000000008104602283015379010000000000000000000000000000000000000000000000000081046021830153780100000000000000000000000000000000000000000000000081046020830153506200070d8282856001600481106200051357fe5b60200201516002876000600481106200052857fe5b60200201516040518082805190602001908083835b602083106200056257805182526020820191506020810190506020830392506200053d565b6001836020036101000a038019825116818451168082178552505050505050905001915050602060405180830381855afa158015620005a5573d6000803e3d6000fd5b5050506040513d6020811015620005bb57600080fd5b810190808051906020019092919050505087600260048110620005da57fe5b60200201516040516020018085805190602001908083835b60208310620006175780518252602082019150602081019050602083039250620005f2565b6001836020036101000a03801982511681845116808217855250505050505090500184805190602001908083835b602083106200066a578051825260208201915060208101905060208303925062000645565b6001836020036101000a03801982511681845116808217855250505050505090500183815260200182805190602001908083835b60208310620006c357805182526020820191506020810190506020830392506200069e565b6001836020036101000a0380198251168184511680821785525050505050509050019450505050506040516020818303038152906040528051906020012062000e5860201b60201c565b8199505050505050505050509392505050565b60008073ffffffffffffffffffffffffffffffffffffffff16600260009054906101000a900473ffffffffffffffffffffffffffffffffffffffff1673ffffffffffffffffffffffffffffffffffffffff161480620007b157506000620007af600260009054906101000a900473ffffffffffffffffffffffffffffffffffffffff1662000e7460201b60201c565b145b15620007cb57620007c9600062000e7f60201b60201c565b505b600260009054906101000a900473ffffffffffffffffffffffffffffffffffffffff1673ffffffffffffffffffffffffffffffffffffffff166338cc48316040518163ffffffff1660e01b8152600401602060405180830381600087803b1580156200083657600080fd5b505af11580156200084b573d6000803e3d6000fd5b505050506040513d60208110156200086257600080fd5b810190808051906020019092919050505073ffffffffffffffffffffffffffffffffffffffff16600160009054906101000a900473ffffffffffffffffffffffffffffffffffffffff1673ffffffffffffffffffffffffffffffffffffffff1614620009b157600260009054906101000a900473ffffffffffffffffffffffffffffffffffffffff1673ffffffffffffffffffffffffffffffffffffffff166338cc48316040518163ffffffff1660e01b8152600401602060405180830381600087803b1580156200093357600080fd5b505af115801562000948573d6000803e3d6000fd5b505050506040513d60208110156200095f57600080fd5b8101908080519060200190929190505050600160006101000a81548173ffffffffffffffffffffffffffffffffffffffff021916908373ffffffffffffffffffffffffffffffffffffffff1602179055505b600160009054906101000a900473ffffffffffffffffffffffffffffffffffffffff1673ffffffffffffffffffffffffffffffffffffffff1663abaa5f3e6040518163ffffffff1660e01b815260040160206040518083038186803b15801562000a1a57600080fd5b505afa15801562000a2f573d6000803e3d6000fd5b505050506040513d602081101562000a4657600080fd5b8101908080519060200190929190505050905090565b606060008285019050808451101562000a7457600080fd5b600086602001905060008460200190505b86886020010182101562000aaf578189015180828801525060208201915060208101905062000a85565b85935050505095945050505050565b60008073ffffffffffffffffffffffffffffffffffffffff16600260009054906101000a900473ffffffffffffffffffffffffffffffffffffffff1673ffffffffffffffffffffffffffffffffffffffff16148062000b4f5750600062000b4d600260009054906101000a900473ffffffffffffffffffffffffffffffffffffffff1662000e7460201b60201c565b145b1562000b695762000b67600062000e7f60201b60201c565b505b600260009054906101000a900473ffffffffffffffffffffffffffffffffffffffff1673ffffffffffffffffffffffffffffffffffffffff166338cc48316040518163ffffffff1660e01b8152600401602060405180830381600087803b15801562000bd457600080fd5b505af115801562000be9573d6000803e3d6000fd5b505050506040513d602081101562000c0057600080fd5b810190808051906020019092919050505073ffffffffffffffffffffffffffffffffffffffff16600160009054906101000a900473ffffffffffffffffffffffffffffffffffffffff1673ffffffffffffffffffffffffffffffffffffffff161462000d4f57600260009054906101000a900473ffffffffffffffffffffffffffffffffffffffff1673ffffffffffffffffffffffffffffffffffffffff166338cc48316040518163ffffffff1660e01b8152600401602060405180830381600087803b15801562000cd157600080fd5b505af115801562000ce6573d6000803e3d6000fd5b505050506040513d602081101562000cfd57600080fd5b8101908080519060200190929190505050600160006101000a81548173ffffffffffffffffffffffffffffffffffffffff021916908373ffffffffffffffffffffffffffffffffffffffff1602179055505b6060600460405190808252806020026020018201604052801562000d8857816020015b606081526020019060019003908162000d725790505b5090508360006004811062000d9957fe5b60200201518160008151811062000dac57fe5b60200260200101819052508360016004811062000dc557fe5b60200201518160018151811062000dd857fe5b60200260200101819052508360026004811062000df157fe5b60200201518160028151811062000e0457fe5b60200260200101819052508360036004811062000e1d57fe5b60200201518160038151811062000e3057fe5b602002602001018190525062000e4e85828562000e9860201b60201c565b9150509392505050565b8060046000848152602001908152602001600020819055505050565b6000813b9050919050565b600062000e916200143060201b60201c565b9050919050565b60008073ffffffffffffffffffffffffffffffffffffffff16600260009054906101000a900473ffffffffffffffffffffffffffffffffffffffff1673ffffffffffffffffffffffffffffffffffffffff16148062000f295750600062000f27600260009054906101000a900473ffffffffffffffffffffffffffffffffffffffff1662000e7460201b60201c565b145b1562000f435762000f41600062000e7f60201b60201c565b505b600260009054906101000a900473ffffffffffffffffffffffffffffffffffffffff1673ffffffffffffffffffffffffffffffffffffffff166338cc48316040518163ffffffff1660e01b8152600401602060405180830381600087803b15801562000fae57600080fd5b505af115801562000fc3573d6000803e3d6000fd5b505050506040513d602081101562000fda57600080fd5b810190808051906020019092919050505073ffffffffffffffffffffffffffffffffffffffff16600160009054906101000a900473ffffffffffffffffffffffffffffffffffffffff1673ffffffffffffffffffffffffffffffffffffffff16146200112957600260009054906101000a900473ffffffffffffffffffffffffffffffffffffffff1673ffffffffffffffffffffffffffffffffffffffff166338cc48316040518163ffffffff1660e01b8152600401602060405180830381600087803b158015620010ab57600080fd5b505af1158015620010c0573d6000803e3d6000fd5b505050506040513d6020811015620010d757600080fd5b8101908080519060200190929190505050600160006101000a81548173ffffffffffffffffffffffffffffffffffffffff021916908373ffffffffffffffffffffffffffffffffffffffff1602179055505b6000600160009054906101000a900473ffffffffffffffffffffffffffffffffffffffff1673ffffffffffffffffffffffffffffffffffffffff16632ef3accc86856040518363ffffffff1660e01b81526004018080602001838152602001828103825284818151815260200191508051906020019080838360005b83811015620011c2578082015181840152602081019050620011a5565b50505050905090810190601f168015620011f05780820380516001836020036101000a031916815260200191505b509350505050602060405180830381600087803b1580156200121157600080fd5b505af115801562001226573d6000803e3d6000fd5b505050506040513d60208110156200123d57600080fd5b81019080805190602001909291905050509050823a02670de0b6b3a76400000181111562001272576000801b91505062001429565b60606200128585620019ff60201b60201c565b9050600160009054906101000a900473ffffffffffffffffffffffffffffffffffffffff1673ffffffffffffffffffffffffffffffffffffffff1663c55c1cb68360008985896040518663ffffffff1660e01b8152600401808581526020018060200180602001848152602001838103835286818151815260200191508051906020019080838360005b838110156200132c5780820151818401526020810190506200130f565b50505050905090810190601f1680156200135a5780820380516001836020036101000a031916815260200191505b50838103825285818151815260200191508051906020019080838360005b838110156200139557808201518184015260208101905062001378565b50505050905090810190601f168015620013c35780820380516001836020036101000a031916815260200191505b5096505050505050506020604051808303818588803b158015620013e657600080fd5b505af1158015620013fb573d6000803e3d6000fd5b50505050506040513d60208110156200141357600080fd5b8101908080519060200190929190505050925050505b9392505050565b60008062001458731d3b2638a7cc9f2cb3d298a3da7a90b67e5506ed62000e7460201b60201c565b11156200150457731d3b2638a7cc9f2cb3d298a3da7a90b67e5506ed600260006101000a81548173ffffffffffffffffffffffffffffffffffffffff021916908373ffffffffffffffffffffffffffffffffffffffff160217905550620014fa6040518060400160405280600b81526020017f6574685f6d61696e6e657400000000000000000000000000000000000000000081525062001aba60201b60201c565b60019050620019fc565b60006200152b73c03a2615d5efaf5f49f60b7bb6583eaec212fdf162000e7460201b60201c565b1115620015d75773c03a2615d5efaf5f49f60b7bb6583eaec212fdf1600260006101000a81548173ffffffffffffffffffffffffffffffffffffffff021916908373ffffffffffffffffffffffffffffffffffffffff160217905550620015cd6040518060400160405280600c81526020017f6574685f726f707374656e33000000000000000000000000000000000000000081525062001aba60201b60201c565b60019050620019fc565b6000620015fe73b7a07bcf2ba2f2703b24c0691b5278999c59ac7e62000e7460201b60201c565b1115620016aa5773b7a07bcf2ba2f2703b24c0691b5278999c59ac7e600260006101000a81548173ffffffffffffffffffffffffffffffffffffffff021916908373ffffffffffffffffffffffffffffffffffffffff160217905550620016a06040518060400160405280600981526020017f6574685f6b6f76616e000000000000000000000000000000000000000000000081525062001aba60201b60201c565b60019050620019fc565b6000620016d173146500cfd35b22e4a392fe0adc06de1a1368ed4862000e7460201b60201c565b11156200177d5773146500cfd35b22e4a392fe0adc06de1a1368ed48600260006101000a81548173ffffffffffffffffffffffffffffffffffffffff021916908373ffffffffffffffffffffffffffffffffffffffff160217905550620017736040518060400160405280600b81526020017f6574685f72696e6b65627900000000000000000000000000000000000000000081525062001aba60201b60201c565b60019050620019fc565b6000620017a473a2998efd205fb9d4b4963afb70778d6354ad3a4162000e7460201b60201c565b1115620018505773a2998efd205fb9d4b4963afb70778d6354ad3a41600260006101000a81548173ffffffffffffffffffffffffffffffffffffffff021916908373ffffffffffffffffffffffffffffffffffffffff160217905550620018466040518060400160405280600a81526020017f6574685f676f65726c690000000000000000000000000000000000000000000081525062001aba60201b60201c565b60019050620019fc565b600062001877736f485c8bf6fc43ea212e93bbf8ce046c7f1cb47562000e7460201b60201c565b1115620018dd57736f485c8bf6fc43ea212e93bbf8ce046c7f1cb475600260006101000a81548173ffffffffffffffffffffffffffffffffffffffff021916908373ffffffffffffffffffffffffffffffffffffffff16021790555060019050620019fc565b6000620019047320e12a1f859b3feae5fb2a0a32c18f5a65555bbf62000e7460201b60201c565b11156200196a577320e12a1f859b3feae5fb2a0a32c18f5a65555bbf600260006101000a81548173ffffffffffffffffffffffffffffffffffffffff021916908373ffffffffffffffffffffffffffffffffffffffff16021790555060019050620019fc565b6000620019917351efaf4c8b3c9afbd5ab9f4bbc82784ab6ef8faa62000e7460201b60201c565b1115620019f7577351efaf4c8b3c9afbd5ab9f4bbc82784ab6ef8faa600260006101000a81548173ffffffffffffffffffffffffffffffffffffffff021916908373ffffffffffffffffffffffffffffffffffffffff16021790555060019050620019fc565b600090505b90565b606062001a1162001ad660201b60201c565b62001a1b62001f3b565b62001a348161040062001ae260201b62002f2f1760201c565b62001a4a8162001b2f60201b62002f791760201c565b60008090505b835181101562001a965762001a8884828151811062001a6b57fe5b60200260200101518362001b4560201b62002f871790919060201c565b808060010191505062001a50565b5062001aad8162001b7960201b62002fac1760201c565b8060000151915050919050565b806003908051906020019062001ad292919062001f55565b5050565b60405180590338823950565b600081905060006020828162001af457fe5b061462001b0f576020818162001b0657fe5b06602003810190505b808360200181815250506040518084526000815281810160405250505050565b62001b4281600462001b8f60201b60201c565b50565b62001b5a826002835162001bb760201b60201c565b62001b74818362001d3f60201b6200311b1790919060201c565b505050565b62001b8c81600762001b8f60201b60201c565b50565b62001bb3601f60058360ff16901b178362001dff60201b620031c61790919060201c565b5050565b6017811162001bec5762001be68160058460ff16901b60ff16178462001dff60201b620031c61790919060201c565b62001d3a565b60ff811162001c3d5762001c19601860058460ff16901b178462001dff60201b620031c61790919060201c565b62001c368160018562001e4860201b62003206179092919060201c565b5062001d39565b61ffff811162001c8f5762001c6b601960058460ff16901b178462001dff60201b620031c61790919060201c565b62001c888160028562001e4860201b62003206179092919060201c565b5062001d38565b63ffffffff811162001ce35762001cbf601a60058460ff16901b178462001dff60201b620031c61790919060201c565b62001cdc8160048562001e4860201b62003206179092919060201c565b5062001d37565b67ffffffffffffffff811162001d365762001d17601b60058460ff16901b178462001dff60201b620031c61790919060201c565b62001d348160088562001e4860201b62003206179092919060201c565b505b5b5b5b5b505050565b62001d4962001f3b565b8260200151836000015151835101111562001d8a5762001d8983600262001d7c8660200151865162001ec260201b60201c565b0262001ee060201b60201c565b5b60008060008451905085518051602081830101945086518101825260208701935050505b6020811062001dd3578151835260208301925060208201915060208103905062001dae565b60006001826020036101000a039050801983511681855116818117865250508694505050505092915050565b8160200151600183600001515101111562001e2e5762001e2d82600284602001510262001ee060201b60201c565b5b815180516020818301018381536001820183525050505050565b62001e5262001f3b565b83602001518460000151518301111562001e915762001e9084600262001e8387602001518662001ec260201b60201c565b0262001ee060201b60201c565b5b60006001836101000a0390508451805184818301018684198251161781528582018352505050849150509392505050565b60008183111562001ed65782905062001eda565b8190505b92915050565b60608260000151905062001efb838362001ae260201b60201c565b62001f0d838262001d3f60201b60201c565b50505050565b60405180608001604052806004905b606081526020019060019003908162001f225790505090565b604051806040016040528060608152602001600081525090565b828054600181600116156101000203166002900490600052602060002090601f016020900481019282601f1062001f9857805160ff191683800117855562001fc9565b8280016001018555821562001fc9579182015b8281111562001fc857825182559160200191906001019062001fab565b5b50905062001fd8919062001fdc565b5090565b6200200191905b8082111562001ffd57600081600090555060010162001fe3565b5090565b90565b61344580620020146000396000f3fe6080604052600436106100fe5760003560e01c80635569b1d511610095578063998d424311610064578063998d42431461066c578063ab6ad45214610697578063bc5bb08b146106c2578063ce606ee014610727578063f2fde38b1461077e576100fe565b80635569b1d51461051f57806365dfe2b9146105845780636898f82b146105af5780636bb66927146105f1576100fe565b806331aae0ab116100d157806331aae0ab146102ce578063369b43391461033357806338bbfa50146103515780634846ec86146104ba576100fe565b8063028d5df1146101035780632540e2741461016857806327dc297e146101d15780632d0488d5146102a3575b600080fd5b34801561010f57600080fd5b506101526004803603602081101561012657600080fd5b81019080803573ffffffffffffffffffffffffffffffffffffffff1690602001909291905050506107cf565b6040518082815260200191505060405180910390f35b34801561017457600080fd5b506101b76004803603602081101561018b57600080fd5b81019080803573ffffffffffffffffffffffffffffffffffffffff1690602001909291905050506107e7565b604051808215151515815260200191505060405180910390f35b3480156101dd57600080fd5b506102a1600480360360408110156101f457600080fd5b81019080803590602001909291908035906020019064010000000081111561021b57600080fd5b82018360208201111561022d57600080fd5b8035906020019184600183028401116401000000008311171561024f57600080fd5b91908080601f016020809104026020016040519081016040528093929190818152602001838380828437600081840152601f19601f820116905080830192505050505050509192919290505050610807565b005b3480156102af57600080fd5b506102b861084a565b6040518082815260200191505060405180910390f35b3480156102da57600080fd5b5061031d600480360360208110156102f157600080fd5b81019080803573ffffffffffffffffffffffffffffffffffffffff169060200190929190505050610891565b6040518082815260200191505060405180910390f35b61033b6108a9565b6040518082815260200191505060405180910390f35b34801561035d57600080fd5b506104b86004803603606081101561037457600080fd5b81019080803590602001909291908035906020019064010000000081111561039b57600080fd5b8201836020820111156103ad57600080fd5b803590602001918460018302840111640100000000831117156103cf57600080fd5b91908080601f016020809104026020016040519081016040528093929190818152602001838380828437600081840152601f19601f8201169050808301925050505050505091929192908035906020019064010000000081111561043257600080fd5b82018360208201111561044457600080fd5b8035906020019184600183028401116401000000008311171561046657600080fd5b91908080601f016020809104026020016040519081016040528093929190818152602001838380828437600081840152601f19601f820116905080830192505050505050509192919290505050610984565b005b3480156104c657600080fd5b50610509600480360360208110156104dd57600080fd5b81019080803573ffffffffffffffffffffffffffffffffffffffff169060200190929190505050610a8d565b6040518082815260200191505060405180910390f35b34801561052b57600080fd5b5061056e6004803603602081101561054257600080fd5b81019080803573ffffffffffffffffffffffffffffffffffffffff169060200190929190505050610aa5565b6040518082815260200191505060405180910390f35b34801561059057600080fd5b50610599610abd565b6040518082815260200191505060405180910390f35b6105db600480360360208110156105c557600080fd5b8101908080359060200190929190505050610b04565b6040518082815260200191505060405180910390f35b3480156105fd57600080fd5b5061062a6004803603602081101561061457600080fd5b8101908080359060200190929190505050610dd9565b604051808273ffffffffffffffffffffffffffffffffffffffff1673ffffffffffffffffffffffffffffffffffffffff16815260200191505060405180910390f35b34801561067857600080fd5b50610681610e0c565b6040518082815260200191505060405180910390f35b3480156106a357600080fd5b506106ac610ee4565b6040518082815260200191505060405180910390f35b3480156106ce57600080fd5b50610711600480360360208110156106e557600080fd5b81019080803573ffffffffffffffffffffffffffffffffffffffff169060200190929190505050610eea565b6040518082815260200191505060405180910390f35b34801561073357600080fd5b5061073c610f02565b604051808273ffffffffffffffffffffffffffffffffffffffff1673ffffffffffffffffffffffffffffffffffffffff16815260200191505060405180910390f35b34801561078a57600080fd5b506107cd600480360360208110156107a157600080fd5b81019080803573ffffffffffffffffffffffffffffffffffffffff169060200190929190505050610f27565b005b600b6020528060005260406000206000915090505481565b600c6020528060005260406000206000915054906101000a900460ff1681565b610846828260006040519080825280601f01601f1916602001820160405280156108405781602001600182028038833980820191505090505b50610984565b5050565b6000600760003373ffffffffffffffffffffffffffffffffffffffff1673ffffffffffffffffffffffffffffffffffffffff16815260200190815260200160002054905090565b600d6020528060005260406000206000915090505481565b60008060009050600062030d4090506108c482600183611049565b92507f94f2559b5e2b297de3db1587daf2352e872ada3dad01dab9ee3733592fa22ed360405180806020018281038252602c8152602001806133c1602c913960400191505060405180910390a17fd0edb2e216faee7876857e78c089ec106caa096d4c7bb013cdc78f85173ff63f3384604051808373ffffffffffffffffffffffffffffffffffffffff1673ffffffffffffffffffffffffffffffffffffffff1681526020018281526020019250505060405180910390a1829250505090565b61098c6115e4565b73ffffffffffffffffffffffffffffffffffffffff163373ffffffffffffffffffffffffffffffffffffffff16146109c357600080fd5b60006002836040516020018082805190602001908083835b602083106109fe57805182526020820191506020810190506020830392506109db565b6001836020036101000a0380198251168184511680821785525050505050509050019150506040516020818303038152906040528051906020012060001c81610a4357fe5b0690507fc13d60fe9dffdb6908d2d446cd18134373a51db0738ee04f296eeb9128121cbc816040518082815260200191505060405180910390a1610a878185611904565b50505050565b60096020528060005260406000206000915090505481565b600a6020528060005260406000206000915090505481565b6000600960003373ffffffffffffffffffffffffffffffffffffffff1673ffffffffffffffffffffffffffffffffffffffff16815260200190815260200160002054905090565b6000346001811015610b7e576040517f08c379a00000000000000000000000000000000000000000000000000000000081526004018080602001828103825260158152602001807f6d696e696d756d20706c6179206973203120776569000000000000000000000081525060200191505060405180910390fd5b60008314158015610b90575060018314155b15610c03576040517f08c379a000000000000000000000000000000000000000000000000000000000815260040180806020018281038252601c8152602001807f506c656173652063686f73652031206f72203020617320696e7075740000000081525060200191505060405180910390fd5b34600a60003373ffffffffffffffffffffffffffffffffffffffff1673ffffffffffffffffffffffffffffffffffffffff16815260200190815260200160002081905550600654600d60003373ffffffffffffffffffffffffffffffffffffffff1673ffffffffffffffffffffffffffffffffffffffff16815260200190815260200160002081905550346006819055506001600c60003373ffffffffffffffffffffffffffffffffffffffff1673ffffffffffffffffffffffffffffffffffffffff16815260200190815260200160002060006101000a81548160ff02191690831515021790555082600b60003373ffffffffffffffffffffffffffffffffffffffff1673ffffffffffffffffffffffffffffffffffffffff16815260200190815260200160002081905550610d386108a9565b9150336008600084815260200190815260200160002060006101000a81548173ffffffffffffffffffffffffffffffffffffffff021916908373ffffffffffffffffffffffffffffffffffffffff16021790555081600960003373ffffffffffffffffffffffffffffffffffffffff1673ffffffffffffffffffffffffffffffffffffffff1681526020019081526020016000208190555081915050919050565b60086020528060005260406000206000915054906101000a900473ffffffffffffffffffffffffffffffffffffffff1681565b600080600760003373ffffffffffffffffffffffffffffffffffffffff1673ffffffffffffffffffffffffffffffffffffffff1681526020019081526020016000205490506000600760003373ffffffffffffffffffffffffffffffffffffffff1673ffffffffffffffffffffffffffffffffffffffff168152602001908152602001600020819055503373ffffffffffffffffffffffffffffffffffffffff166108fc829081150290604051600060405180830381858888f19350505050158015610edc573d6000803e3d6000fd5b508091505090565b60065481565b60076020528060005260406000206000915090505481565b6000809054906101000a900473ffffffffffffffffffffffffffffffffffffffff1681565b6000809054906101000a900473ffffffffffffffffffffffffffffffffffffffff1673ffffffffffffffffffffffffffffffffffffffff163373ffffffffffffffffffffffffffffffffffffffff1614610fcc576040517f08c379a000000000000000000000000000000000000000000000000000000000815260040180806020018281038252602e815260200180613393602e913960400191505060405180910390fd5b600073ffffffffffffffffffffffffffffffffffffffff168173ffffffffffffffffffffffffffffffffffffffff16141561100657600080fd5b806000806101000a81548173ffffffffffffffffffffffffffffffffffffffff021916908373ffffffffffffffffffffffffffffffffffffffff16021790555050565b6000808311801561105b575060208311155b61106457600080fd5b600a84029350606060016040519080825280601f01601f1916602001820160405280156110a05781602001600182028038833980820191505090505b5090508360f81b816000815181106110b457fe5b60200101907effffffffffffffffffffffffffffffffffffffffffffffffffffffffffffff1916908160001a905350606060206040519080825280601f01601f1916602001820160405280156111195781602001600182028038833980820191505090505b509050606060206040519080825280601f01601f1916602001820160405280156111525781602001600182028038833980820191505090505b509050600061115f611ca6565b905060208352424118600143034018602084015260208252806020830152606060206040519080825280601f01601f1916602001820160405280156111b35781602001600182028038833980820191505090505b509050886020820152606060086040519080825280601f01601f1916602001820160405280156111f25781602001600182028038833980820191505090505b5090506112058260186008846000611fc6565b5061120e6132ac565b604051806080016040528087815260200188815260200186815260200184815250905060006112736040518060400160405280600681526020017f72616e646f6d0000000000000000000000000000000000000000000000000000815250838c612025565b9050606060086040519080825280601f01601f1916602001820160405280156112ab5781602001600182028038833980820191505090505b50905060208401517f0100000000000000000000000000000000000000000000000000000000000000810460278301537e01000000000000000000000000000000000000000000000000000000000000810460268301537d010000000000000000000000000000000000000000000000000000000000810460258301537c0100000000000000000000000000000000000000000000000000000000810460248301537b01000000000000000000000000000000000000000000000000000000810460238301537a0100000000000000000000000000000000000000000000000000008104602283015379010000000000000000000000000000000000000000000000000081046021830153780100000000000000000000000000000000000000000000000081046020830153506115d18282856001600481106113ea57fe5b60200201516002876000600481106113fe57fe5b60200201516040518082805190602001908083835b602083106114365780518252602082019150602081019050602083039250611413565b6001836020036101000a038019825116818451168082178552505050505050905001915050602060405180830381855afa158015611478573d6000803e3d6000fd5b5050506040513d602081101561148d57600080fd5b8101908080519060200190929190505050876002600481106114ab57fe5b60200201516040516020018085805190602001908083835b602083106114e657805182526020820191506020810190506020830392506114c3565b6001836020036101000a03801982511681845116808217855250505050505090500184805190602001908083835b602083106115375780518252602082019150602081019050602083039250611514565b6001836020036101000a03801982511681845116808217855250505050505090500183815260200182805190602001908083835b6020831061158e578051825260208201915060208101905060208303925061156b565b6001836020036101000a03801982511681845116808217855250505050505090500194505050505060405160208183030381529060405280519060200120612394565b8199505050505050505050509392505050565b60008073ffffffffffffffffffffffffffffffffffffffff16600260009054906101000a900473ffffffffffffffffffffffffffffffffffffffff1673ffffffffffffffffffffffffffffffffffffffff16148061166c5750600061166a600260009054906101000a900473ffffffffffffffffffffffffffffffffffffffff166123b0565b145b1561167d5761167b60006123bb565b505b600260009054906101000a900473ffffffffffffffffffffffffffffffffffffffff1673ffffffffffffffffffffffffffffffffffffffff166338cc48316040518163ffffffff1660e01b8152600401602060405180830381600087803b1580156116e757600080fd5b505af11580156116fb573d6000803e3d6000fd5b505050506040513d602081101561171157600080fd5b810190808051906020019092919050505073ffffffffffffffffffffffffffffffffffffffff16600160009054906101000a900473ffffffffffffffffffffffffffffffffffffffff1673ffffffffffffffffffffffffffffffffffffffff161461185c57600260009054906101000a900473ffffffffffffffffffffffffffffffffffffffff1673ffffffffffffffffffffffffffffffffffffffff166338cc48316040518163ffffffff1660e01b8152600401602060405180830381600087803b1580156117e057600080fd5b505af11580156117f4573d6000803e3d6000fd5b505050506040513d602081101561180a57600080fd5b8101908080519060200190929190505050600160006101000a81548173ffffffffffffffffffffffffffffffffffffffff021916908373ffffffffffffffffffffffffffffffffffffffff1602179055505b600160009054906101000a900473ffffffffffffffffffffffffffffffffffffffff1673ffffffffffffffffffffffffffffffffffffffff1663c281d19e6040518163ffffffff1660e01b815260040160206040518083038186803b1580156118c457600080fd5b505afa1580156118d8573d6000803e3d6000fd5b505050506040513d60208110156118ee57600080fd5b8101908080519060200190929190505050905090565b60006008600083815260200190815260200160002060009054906101000a900473ffffffffffffffffffffffffffffffffffffffff169050600c60008273ffffffffffffffffffffffffffffffffffffffff1673ffffffffffffffffffffffffffffffffffffffff16815260200190815260200160002060009054906101000a900460ff166119de576040517f08c379a00000000000000000000000000000000000000000000000000000000081526004018080602001828103825260248152602001806133ed6024913960400191505060405180910390fd5b6000600d60008373ffffffffffffffffffffffffffffffffffffffff1673ffffffffffffffffffffffffffffffffffffffff168152602001908152602001600020549050600b60008373ffffffffffffffffffffffffffffffffffffffff1673ffffffffffffffffffffffffffffffffffffffff16815260200190815260200160002054841415611b795780600760008473ffffffffffffffffffffffffffffffffffffffff1673ffffffffffffffffffffffffffffffffffffffff168152602001908152602001600020600082825401925050819055506000600d60008473ffffffffffffffffffffffffffffffffffffffff1673ffffffffffffffffffffffffffffffffffffffff16815260200190815260200160002081905550827f78fbf76d02ad3112568a5ec25626c521bdb7566fad0f7b89f6e27d5e0890f7c583836001604051808473ffffffffffffffffffffffffffffffffffffffff1673ffffffffffffffffffffffffffffffffffffffff16815260200183815260200182151515158152602001935050505060405180910390a2611c48565b6000600d60008473ffffffffffffffffffffffffffffffffffffffff1673ffffffffffffffffffffffffffffffffffffffff1681526020019081526020016000208190555080600660008282540192505081905550827f78fbf76d02ad3112568a5ec25626c521bdb7566fad0f7b89f6e27d5e0890f7c583836000604051808473ffffffffffffffffffffffffffffffffffffffff1673ffffffffffffffffffffffffffffffffffffffff16815260200183815260200182151515158152602001935050505060405180910390a25b6000600c60008473ffffffffffffffffffffffffffffffffffffffff1673ffffffffffffffffffffffffffffffffffffffff16815260200190815260200160002060006101000a81548160ff02191690831515021790555050505050565b60008073ffffffffffffffffffffffffffffffffffffffff16600260009054906101000a900473ffffffffffffffffffffffffffffffffffffffff1673ffffffffffffffffffffffffffffffffffffffff161480611d2e57506000611d2c600260009054906101000a900473ffffffffffffffffffffffffffffffffffffffff166123b0565b145b15611d3f57611d3d60006123bb565b505b600260009054906101000a900473ffffffffffffffffffffffffffffffffffffffff1673ffffffffffffffffffffffffffffffffffffffff166338cc48316040518163ffffffff1660e01b8152600401602060405180830381600087803b158015611da957600080fd5b505af1158015611dbd573d6000803e3d6000fd5b505050506040513d6020811015611dd357600080fd5b810190808051906020019092919050505073ffffffffffffffffffffffffffffffffffffffff16600160009054906101000a900473ffffffffffffffffffffffffffffffffffffffff1673ffffffffffffffffffffffffffffffffffffffff1614611f1e57600260009054906101000a900473ffffffffffffffffffffffffffffffffffffffff1673ffffffffffffffffffffffffffffffffffffffff166338cc48316040518163ffffffff1660e01b8152600401602060405180830381600087803b158015611ea257600080fd5b505af1158015611eb6573d6000803e3d6000fd5b505050506040513d6020811015611ecc57600080fd5b8101908080519060200190929190505050600160006101000a81548173ffffffffffffffffffffffffffffffffffffffff021916908373ffffffffffffffffffffffffffffffffffffffff1602179055505b600160009054906101000a900473ffffffffffffffffffffffffffffffffffffffff1673ffffffffffffffffffffffffffffffffffffffff1663abaa5f3e6040518163ffffffff1660e01b815260040160206040518083038186803b158015611f8657600080fd5b505afa158015611f9a573d6000803e3d6000fd5b505050506040513d6020811015611fb057600080fd5b8101908080519060200190929190505050905090565b6060600082850190508084511015611fdd57600080fd5b600086602001905060008460200190505b8688602001018210156120165781890151808288015250602082019150602081019050611fee565b85935050505095945050505050565b60008073ffffffffffffffffffffffffffffffffffffffff16600260009054906101000a900473ffffffffffffffffffffffffffffffffffffffff1673ffffffffffffffffffffffffffffffffffffffff1614806120ad575060006120ab600260009054906101000a900473ffffffffffffffffffffffffffffffffffffffff166123b0565b145b156120be576120bc60006123bb565b505b600260009054906101000a900473ffffffffffffffffffffffffffffffffffffffff1673ffffffffffffffffffffffffffffffffffffffff166338cc48316040518163ffffffff1660e01b8152600401602060405180830381600087803b15801561212857600080fd5b505af115801561213c573d6000803e3d6000fd5b505050506040513d602081101561215257600080fd5b810190808051906020019092919050505073ffffffffffffffffffffffffffffffffffffffff16600160009054906101000a900473ffffffffffffffffffffffffffffffffffffffff1673ffffffffffffffffffffffffffffffffffffffff161461229d57600260009054906101000a900473ffffffffffffffffffffffffffffffffffffffff1673ffffffffffffffffffffffffffffffffffffffff166338cc48316040518163ffffffff1660e01b8152600401602060405180830381600087803b15801561222157600080fd5b505af1158015612235573d6000803e3d6000fd5b505050506040513d602081101561224b57600080fd5b8101908080519060200190929190505050600160006101000a81548173ffffffffffffffffffffffffffffffffffffffff021916908373ffffffffffffffffffffffffffffffffffffffff1602179055505b606060046040519080825280602002602001820160405280156122d457816020015b60608152602001906001900390816122bf5790505b509050836000600481106122e457fe5b6020020151816000815181106122f657fe5b60200260200101819052508360016004811061230e57fe5b60200201518160018151811061232057fe5b60200260200101819052508360026004811061233857fe5b60200201518160028151811061234a57fe5b60200260200101819052508360036004811061236257fe5b60200201518160038151811061237457fe5b602002602001018190525061238a8582856123cc565b9150509392505050565b8060046000848152602001908152602001600020819055505050565b6000813b9050919050565b60006123c5612932565b9050919050565b60008073ffffffffffffffffffffffffffffffffffffffff16600260009054906101000a900473ffffffffffffffffffffffffffffffffffffffff1673ffffffffffffffffffffffffffffffffffffffff16148061245457506000612452600260009054906101000a900473ffffffffffffffffffffffffffffffffffffffff166123b0565b145b156124655761246360006123bb565b505b600260009054906101000a900473ffffffffffffffffffffffffffffffffffffffff1673ffffffffffffffffffffffffffffffffffffffff166338cc48316040518163ffffffff1660e01b8152600401602060405180830381600087803b1580156124cf57600080fd5b505af11580156124e3573d6000803e3d6000fd5b505050506040513d60208110156124f957600080fd5b810190808051906020019092919050505073ffffffffffffffffffffffffffffffffffffffff16600160009054906101000a900473ffffffffffffffffffffffffffffffffffffffff1673ffffffffffffffffffffffffffffffffffffffff161461264457600260009054906101000a900473ffffffffffffffffffffffffffffffffffffffff1673ffffffffffffffffffffffffffffffffffffffff166338cc48316040518163ffffffff1660e01b8152600401602060405180830381600087803b1580156125c857600080fd5b505af11580156125dc573d6000803e3d6000fd5b505050506040513d60208110156125f257600080fd5b8101908080519060200190929190505050600160006101000a81548173ffffffffffffffffffffffffffffffffffffffff021916908373ffffffffffffffffffffffffffffffffffffffff1602179055505b6000600160009054906101000a900473ffffffffffffffffffffffffffffffffffffffff1673ffffffffffffffffffffffffffffffffffffffff16632ef3accc86856040518363ffffffff1660e01b81526004018080602001838152602001828103825284818151815260200191508051906020019080838360005b838110156126db5780820151818401526020810190506126c0565b50505050905090810190601f1680156127085780820380516001836020036101000a031916815260200191505b509350505050602060405180830381600087803b15801561272857600080fd5b505af115801561273c573d6000803e3d6000fd5b505050506040513d602081101561275257600080fd5b81019080805190602001909291905050509050823a02670de0b6b3a764000001811115612785576000801b91505061292b565b606061279085612e89565b9050600160009054906101000a900473ffffffffffffffffffffffffffffffffffffffff1673ffffffffffffffffffffffffffffffffffffffff1663c55c1cb68360008985896040518663ffffffff1660e01b8152600401808581526020018060200180602001848152602001838103835286818151815260200191508051906020019080838360005b8381101561283557808201518184015260208101905061281a565b50505050905090810190601f1680156128625780820380516001836020036101000a031916815260200191505b50838103825285818151815260200191508051906020019080838360005b8381101561289b578082015181840152602081019050612880565b50505050905090810190601f1680156128c85780820380516001836020036101000a031916815260200191505b5096505050505050506020604051808303818588803b1580156128ea57600080fd5b505af11580156128fe573d6000803e3d6000fd5b50505050506040513d602081101561291557600080fd5b8101908080519060200190929190505050925050505b9392505050565b600080612952731d3b2638a7cc9f2cb3d298a3da7a90b67e5506ed6123b0565b11156129f457731d3b2638a7cc9f2cb3d298a3da7a90b67e5506ed600260006101000a81548173ffffffffffffffffffffffffffffffffffffffff021916908373ffffffffffffffffffffffffffffffffffffffff1602179055506129eb6040518060400160405280600b81526020017f6574685f6d61696e6e6574000000000000000000000000000000000000000000815250612f09565b60019050612e86565b6000612a1373c03a2615d5efaf5f49f60b7bb6583eaec212fdf16123b0565b1115612ab55773c03a2615d5efaf5f49f60b7bb6583eaec212fdf1600260006101000a81548173ffffffffffffffffffffffffffffffffffffffff021916908373ffffffffffffffffffffffffffffffffffffffff160217905550612aac6040518060400160405280600c81526020017f6574685f726f707374656e330000000000000000000000000000000000000000815250612f09565b60019050612e86565b6000612ad473b7a07bcf2ba2f2703b24c0691b5278999c59ac7e6123b0565b1115612b765773b7a07bcf2ba2f2703b24c0691b5278999c59ac7e600260006101000a81548173ffffffffffffffffffffffffffffffffffffffff021916908373ffffffffffffffffffffffffffffffffffffffff160217905550612b6d6040518060400160405280600981526020017f6574685f6b6f76616e0000000000000000000000000000000000000000000000815250612f09565b60019050612e86565b6000612b9573146500cfd35b22e4a392fe0adc06de1a1368ed486123b0565b1115612c375773146500cfd35b22e4a392fe0adc06de1a1368ed48600260006101000a81548173ffffffffffffffffffffffffffffffffffffffff021916908373ffffffffffffffffffffffffffffffffffffffff160217905550612c2e6040518060400160405280600b81526020017f6574685f72696e6b656279000000000000000000000000000000000000000000815250612f09565b60019050612e86565b6000612c5673a2998efd205fb9d4b4963afb70778d6354ad3a416123b0565b1115612cf85773a2998efd205fb9d4b4963afb70778d6354ad3a41600260006101000a81548173ffffffffffffffffffffffffffffffffffffffff021916908373ffffffffffffffffffffffffffffffffffffffff160217905550612cef6040518060400160405280600a81526020017f6574685f676f65726c6900000000000000000000000000000000000000000000815250612f09565b60019050612e86565b6000612d17736f485c8bf6fc43ea212e93bbf8ce046c7f1cb4756123b0565b1115612d7b57736f485c8bf6fc43ea212e93bbf8ce046c7f1cb475600260006101000a81548173ffffffffffffffffffffffffffffffffffffffff021916908373ffffffffffffffffffffffffffffffffffffffff16021790555060019050612e86565b6000612d9a7320e12a1f859b3feae5fb2a0a32c18f5a65555bbf6123b0565b1115612dfe577320e12a1f859b3feae5fb2a0a32c18f5a65555bbf600260006101000a81548173ffffffffffffffffffffffffffffffffffffffff021916908373ffffffffffffffffffffffffffffffffffffffff16021790555060019050612e86565b6000612e1d7351efaf4c8b3c9afbd5ab9f4bbc82784ab6ef8faa6123b0565b1115612e81577351efaf4c8b3c9afbd5ab9f4bbc82784ab6ef8faa600260006101000a81548173ffffffffffffffffffffffffffffffffffffffff021916908373ffffffffffffffffffffffffffffffffffffffff16021790555060019050612e86565b600090505b90565b6060612e93612f23565b612e9b6132d3565b612ea781610400612f2f565b612eb081612f79565b60008090505b8351811015612ef257612ee5848281518110612ece57fe5b602002602001015183612f8790919063ffffffff16565b8080600101915050612eb6565b50612efc81612fac565b8060000151915050919050565b8060039080519060200190612f1f9291906132ed565b5050565b60405180590338823950565b6000819050600060208281612f4057fe5b0614612f595760208181612f5057fe5b06602003810190505b808360200181815250506040518084526000815281810160405250505050565b612f84816004612fba565b50565b612f948260028351612fdb565b612fa7818361311b90919063ffffffff16565b505050565b612fb7816007612fba565b50565b612fd7601f60058360ff16901b17836131c690919063ffffffff16565b5050565b60178111613007576130028160058460ff16901b60ff1617846131c690919063ffffffff16565b613116565b60ff81116130485761302c601860058460ff16901b17846131c690919063ffffffff16565b613042816001856132069092919063ffffffff16565b50613115565b61ffff811161308a5761306e601960058460ff16901b17846131c690919063ffffffff16565b613084816002856132069092919063ffffffff16565b50613114565b63ffffffff81116130ce576130b2601a60058460ff16901b17846131c690919063ffffffff16565b6130c8816004856132069092919063ffffffff16565b50613113565b67ffffffffffffffff8111613112576130fa601b60058460ff16901b17846131c690919063ffffffff16565b613110816008856132069092919063ffffffff16565b505b5b5b5b5b505050565b6131236132d3565b826020015183600001515183510111156131535761315283600261314c8660200151865161326d565b02613289565b5b60008060008451905085518051602081830101945086518101825260208701935050505b6020811061319a5781518352602083019250602082019150602081039050613177565b60006001826020036101000a039050801983511681855116818117865250508694505050505092915050565b816020015160018360000151510111156131ec576131eb826002846020015102613289565b5b815180516020818301018381536001820183525050505050565b61320e6132d3565b83602001518460000151518301111561323c5761323b84600261323587602001518661326d565b02613289565b5b60006001836101000a0390508451805184818301018684198251161781528582018352505050849150509392505050565b60008183111561327f57829050613283565b8190505b92915050565b60608260000151905061329c8383612f2f565b6132a6838261311b565b50505050565b60405180608001604052806004905b60608152602001906001900390816132bb5790505090565b604051806040016040528060608152602001600081525090565b828054600181600116156101000203166002900490600052602060002090601f016020900481019282601f1061332e57805160ff191683800117855561335c565b8280016001018555821561335c579182015b8281111561335b578251825591602001919060010190613340565b5b509050613369919061336d565b5090565b61338f91905b8082111561338b576000816000905550600101613373565b5090565b9056fe596f7520617265206e6f7420656e7469746c656420746f206578656375746520746869732066756e6374696f6e2e50726f7661626c652071756572792073656e743b2077616974696e6720666f722063616c6c6261636b2e2e2e7573657220776173206e6f742077616974696e6720666f72206120726573756c742e2e2ea265627a7a72315820835b398358dddcb817c3ed7b1c0e996b57b3ed905e36655266d40d0eafaf729264736f6c634300050c003250726f7661626c652071756572792073656e743b2077616974696e6720666f722063616c6c6261636b2e2e2e",
  "source": "import \"./Ownable.sol\";\nimport \"./provableAPI.sol\";\n\npragma solidity 0.5.12;\n\ncontract Coinflip is Ownable, usingProvable {\n    uint256 public unlockedBalance;\n\n    mapping(address => uint256) public playersCollectablePrizes;\n    mapping(bytes32 => address) public QueryIdPlayer;\n    mapping(address => bytes32) public PlayerQueryId;\n    mapping(address => uint256) public playersLastBet;\n    mapping(address => uint256) public playersLastPlay;\n    mapping(address => bool) public isPlayerWaiting;\n    mapping(address => uint256) public playersPotentialWinnings;\n\n    uint256 constant NUM_RANDOM_BYTES_REQUESTED = 1;\n\n    event userWon(bytes32 indexed queryId, address player, uint256 prize, bool won);\n\n    // Provable Events\n    event logNewProvableQuery(string description);\n    event generatedRandomNumber(uint256 randomNumber);\n    event logQueryId(address player, bytes32 queryId);\n\n    constructor () public {\n        getRandomFromOracle();\n    }\n\n    modifier minimumBet(uint256 betValue) {\n        require(betValue >= 1 wei, \"minimum play is 1 wei\");\n        _;\n    }\n\n    function __callback(\n        bytes32 _queryId,\n        string memory _result,\n        bytes memory _proof\n    ) public {\n        require(msg.sender == provable_cbAddress());\n\n        uint256 randomNumber = uint256(keccak256(abi.encodePacked(_result))) %\n            2;\n        emit generatedRandomNumber(randomNumber);\n        processResult(randomNumber, _queryId);\n    }\n\n    function processResult(uint256 randomNumber, bytes32 queryId) internal {\n        address playerAddress = QueryIdPlayer[queryId];\n        require(isPlayerWaiting[playerAddress], \"user was not waiting for a result...\");\n        uint256 userPrize = playersPotentialWinnings[playerAddress];\n        if (randomNumber == playersLastPlay[playerAddress]) {\n            // user wins\n            playersCollectablePrizes[playerAddress] += userPrize;\n            playersPotentialWinnings[playerAddress] = 0;\n            // didPlayerWon[playerAddress] = true;\n            emit userWon(queryId, playerAddress, userPrize, true);\n        } else {\n            playersPotentialWinnings[playerAddress] = 0;\n            unlockedBalance += userPrize;\n            // didPlayerWon[playerAddress] = false;\n            emit userWon(queryId, playerAddress, userPrize, false);\n        }\n        isPlayerWaiting[playerAddress] = false;\n    }\n\n    function getRandomFromOracle() public payable returns (bytes32 queryId) {\n        uint256 QUERY_EXECUTION_DELAY = 0;\n        uint256 GAS_FOR_CALLBACK = 200000;\n        queryId = provable_newRandomDSQuery(\n            QUERY_EXECUTION_DELAY,\n            NUM_RANDOM_BYTES_REQUESTED,\n            GAS_FOR_CALLBACK\n        );\n\n        emit logNewProvableQuery(\n            \"Provable query sent; waiting for callback...\"\n        );\n        emit logQueryId(msg.sender, queryId);\n        return queryId;\n    }\n\n      function getCollectablePrizes() public returns (uint256 balance) {\n        return playersCollectablePrizes[msg.sender];\n    }\n\n    function collectPrizes() public returns (uint256 collected) {\n        uint256 toTransfer = playersCollectablePrizes[msg.sender];\n        playersCollectablePrizes[msg.sender] = 0;\n        msg.sender.transfer(toTransfer);\n        return toTransfer;\n    }\n\n    function getLatestQueryId()\n        public\n        returns (bytes32 queryID)\n    {\n        return PlayerQueryId[msg.sender];\n    }\n\n    function play(uint256 userPlay)\n        public\n        payable\n        minimumBet(msg.value)\n        returns (bytes32 queryID)\n    {\n\n        if (userPlay != 0 && userPlay != 1) {\n            revert(\"Please chose 1 or 0 as input\");\n        } else {\n            playersLastBet[msg.sender] = msg.value;\n            playersPotentialWinnings[msg.sender] = unlockedBalance;\n            unlockedBalance = msg.value; // pool is never 0...all bets always goes to pool, even if user wins.\n            isPlayerWaiting[msg.sender] = true;\n            playersLastPlay[msg.sender] = userPlay;\n            queryID = getRandomFromOracle();\n            QueryIdPlayer[queryID] = msg.sender;\n            PlayerQueryId[msg.sender] = queryID;\n            return queryID;\n        }\n    }\n}",
  "sourcePath": "/home/autodidactic/lib/projects/coinflip-dapp/contracts/Coinflip.sol",
  "compiler": {
    "name": "solc",
    "version": "0.5.12+commit.7709ece9.Emscripten.clang"
  },
  "schemaVersion": "3.0.16",
  "updatedAt": "2020-03-26T12:22:38.951Z",
  "devdoc": {
    "methods": {
      "__callback(bytes32,string)": {
        "details": "The following `__callback` functions are just placeholders ideally     meant to be defined in child contract when proofs are used.     The function bodies simply silence compiler warnings."
      }
    }
  },
  "userdoc": {
    "methods": {}
  }
}